:020000040800F2
:1000000000500020F1110008AD020008AF02000806
:10001000B1020008B3020008B502000800000000A9
:10002000000000000000000000000000B70200080F
:10003000B902000800000000BB020008BD02000871
:100040003912000839120008391200083912000864
:100050003912000839120008391200083912000854
:100060003912000839120008391200083912000844
:100070003912000839120008391200083912000834
:100080003912000839120008391200083912000824
:100090003912000839120008391200083912000814
:1000A0003912000839120008391200083912000804
:1000B00039120008391200083912000839120008F4
:1000C00039120008391200083912000839120008E4
:1000D0003912000839120008D1020008391200084C
:1000E000C50200083912000839120008000000009B
:1000F0000000000000000000000000000000000000
:0C01000000000000000000005FF808F1A3
:10010C0010B5054C237833B9044B13B10448AFF345
:10011C0000800123237010BD0C00002000000000A3
:10012C008412000808B5034B1BB103490348AFF315
:10013C00008008BD000000001000002084120008A0
:10014C0030B589B0002404940594069407941B4B95
:10015C009A6942F010029A619A6902F010020092B8
:10016C00009A9A6942F020029A619A6902F0200280
:10017C000192019A9A6942F004029A619A6902F01A
:10018C0004020292029A9A6942F008029A619B69EF
:10019C0003F008030393039B094D224601212846D3
:1001AC0000F058FF01230493059306940223079350
:1001BC0004A9284600F03EFE09B030BD00100240F4
:1001CC00000C014008B50848084B03604FF4E133BC
:1001DC00436000238360C36003610C22426183612E
:1001EC00C36100F075F908BD6800002000440040B0
:1001FC0030B591B0002409940B940C9401940294A2
:10020C00039404940594012306934FF4A0220792BF
:10021C0008940A9302250D954FF480330E934FF4F6
:10022C00E0130F9306A800F0EBFA0F23019302954D
:10023C0003944FF4806304930594294601A800F0BD
:10024C001DFD11B030BD704708B50848084B036060
:10025C004FF4E133436000238360C36003610C22DD
:10026C0042618361C36100F033F908BD28000020AE
:10027C000038014008B500F075FAFFF7B9FFFFF739
:10028C005FFFFFF79FFFFFF7DFFF0121034800F03F
:10029C00E7FE642000F08AFAF7E700BF000C01408B
:1002AC007047FEE7FEE7FEE7FEE7704770477047D2
:1002BC0008B500F069FA08BD08B54FF4005000F01D
:1002CC00D9FE08BD08B5024800F08AF908BD00BF88
:1002DC006800002082B00E4B9A6942F001029A61CC
:1002EC009A6902F001020092009ADA6942F0805297
:1002FC00DA61DB6903F080530193019B054A536873
:10030C0023F0E06343F00073536002B0704700BF0A
:10031C00001002400000014010B588B004460023D4
:10032C0004930593069307930268224B9A4205D0D7
:10033C002268214B9A421ED008B010BD03F5E6335B
:10034C00DA6942F40032DA61DA6902F400320092BE
:10035C00009A9A6942F004029A619B6903F00403C3
:10036C000193019B0C2304930223079304A91348C4
:10037C0000F060FDDCE703F558439A6942F48042D3
:10038C009A619A6902F480420292029A9A6942F046
:10039C0008029A619B6903F008030393039BC02333
:1003AC00049302230593079304A9054800F042FD2A
:1003BC00C2E700BF00440040003801400008014083
:1003CC00000C01400268D36823F49073D360026878
:1003DC00536923F001035361202380F83A307047AE
:1003EC0090F83930DBB2212B01D0022070478368A2
:1003FC00B3F5805F17D0036A5A1C02621A7803683F
:10040C005A60C38C9BB2013B9BB2C3844BB902684C
:10041C00D36823F08003D3600268D36843F04003B1
:10042C00D360002070470369002BE4D1036A1B885A
:10043C000268C3F308035360036A02330362E0E704
:10044C0010B504460268136923F44053C1680B438A
:10045C00136183680269134342691A430168CB68CC
:10046C0023F4B05323F00C031343CB60026853699D
:10047C0023F4407381690B4353610268124B9A4217
:10048C001FD000F0B7FC00EB800303EB8303626822
:10049C009200B3FBF2F20D48A0FB02314909642330
:1004AC0003FB11231B013233A0FB03235B0903F075
:1004BC00F00202EB011203F00F03216813448B606E
:1004CC0010BD00F0A7FCDEE7003801401F85EB51A2
:1004DC0058B310B5044690F839300BB3242384F884
:1004EC0039302268D36823F40053D3602046FFF7D9
:1004FC00A7FF2268136923F49043136122685369A0
:10050C0023F02A0353612268D36843F40053D36069
:10051C000020E063202384F8393084F83A3010BD91
:10052C0080F83830FFF7F8FED8E70120704708B59F
:10053C000168CA6822F04002CA60202280F8392083
:10054C00FFF781FE002008BD704708B590F83A30DF
:10055C00DBB2222B41D18368B3F5805F14D0826A61
:10056C00B3F5805F02D0E3B90369D3B903685B6864
:10057C001370836A01338362C38D9BB2013B9BB2C0
:10058C00C385A3B1002008BD0269002AE7D1826AA5
:10059C0003685B68C3F308031380836A02338362C6
:1005AC00EAE703685B6803F07F031370E1E7026816
:1005BC00D36823F02003D3600268D36823F48073DC
:1005CC00D3600268536923F001035361202380F840
:1005DC003A30FFF7B9FF0020D5E70220D3E7704788
:1005EC0010B5044602681368D168526913F00F0005
:1005FC0005D113F0200F02D011F0200F13D128B128
:10060C0012F0010213D111F4907F10D113F0800F6E
:10061C0002D011F0800F6CD113F0400F02D011F00A
:10062C00400F6AD110BD2046FFF78FFFFAE713F099
:10063C00010F06D011F4807F03D0E06B40F0010075
:10064C00E06313F0040F04D01AB1E06B40F0020029
:10065C00E06313F0020F04D01AB1E06B40F0040019
:10066C00E06313F0080F07D011F0200F00D11AB17E
:10067C00E26B42F00802E263E26B002AD2D013F084
:10068C00200F02D011F0200F21D123685B6903F0F9
:10069C004003E26B12F0080F00D123B32046FFF7A2
:1006AC0091FE23685A6912F0400F18D05A6922F053
:1006BC0040025A61636B73B1124A5A63606B00F06B
:1006CC00E7FC0028AED0606B436B9847AAE7204646
:1006DC00FFF73BFFD9E72046FFF781FFA2E7204653
:1006EC00FFF77DFF9EE72046FFF779FF0023E363CA
:1006FC0098E72046FFF774FE94E72046FFF717FFB4
:10070C0090E700BF1507000808B5406A0023C385B1
:10071C00C384FFF764FF08BD10B504460E4B187870
:10072C004FF47A73B3FBF0F30C4A1068B0FBF3F0A0
:10073C0000F040FD68B90F2C01D901200AE000221D
:10074C0021464FF0FF3000F001FD054B1C600020EE
:10075C0000E0012010BD00BF0000002008000020B8
:10076C000400002008B5074A136843F01003136017
:10077C00032000F0D9FC0020FFF7CEFFFFF7AAFD05
:10078C00002008BD00200240034A1168034B1B786F
:10079C000B441360704700BFA8000020000000202D
:1007AC00014B1868704700BFA800002038B50446FC
:1007BC00FFF7F6FF0546B4F1FF3F02D0044B1B7860
:1007CC001C44FFF7EDFF401BA042FAD338BD00BF1D
:1007DC000000002082B0084B1B68084AA2FB0323D0
:1007EC005B0A00FB03F3019300BF019B5A1E0192AD
:1007FC00002BF9D102B0704708000020D34D6210D5
:10080C00002800F0F18170B582B00446036813F043
:10081C00010F2CD0AA4B5B6803F00C03042B1DD0EA
:10082C00A74B5B6803F00C03082B12D06368B3F57D
:10083C00803F41D0002B55D103F1804303F50433A5
:10084C001A6822F480321A601A6822F480221A6024
:10085C0037E09B4B5B6813F4803FE7D0984B1B68E9
:10086C0013F4003F03D06368002B00F0BF812368B2
:10087C0013F0020F75D0924B5B6813F00C0F5FD026
:10088C008F4B5B6803F00C03082B54D02369002BAF
:10089C0000F089808B4B01221A60FFF781FF05461F
:1008AC00874B1B6813F0020F74D1FFF779FF401BC5
:1008BC000228F5D903209EE1814A136843F4803362
:1008CC001360636843B3FFF76BFF05467C4B1B68F3
:1008DC0013F4003FCBD1FFF763FF401B6428F5D91D
:1008EC00032088E1B3F5A02F09D0754B1A6822F4C8
:1008FC0080321A601A6822F480221A60E1E703F150
:10090C008043A3F53C331A6842F480221A601A68BB
:10091C0042F480321A60D4E7FFF742FF0546684B79
:10092C001B6813F4003FA2D0FFF73AFF401B64286A
:10093C00F5D903205FE1624B5B6813F4803FA5D1CE
:10094C005F4B1B6813F0020F03D02369012B40F09F
:10095C004F815B4A136823F0F803616943EAC103D2
:10096C001360236813F0080F32D0A369002B45D015
:10097C00554B01221A60FFF713FF0546504B5B6A7B
:10098C0013F0020F21D1FFF70BFF401B0228F5D902
:10099C00032030E14A4A136823F0F803616943EA03
:1009AC00C1031360DDE7474B00221A60FFF7F8FE26
:1009BC000546434B1B6813F0020FD2D0FFF7F0FE35
:1009CC00401B0228F5D9032015E10120FFF702FF97
:1009DC00236813F0040F00F09780394BDB6913F098
:1009EC00805F1DD1364BDA6942F08052DA61DB69E7
:1009FC0003F080530193019B012512E0324B00223E
:100A0C001A60FFF7CDFE05462D4B5B6A13F0020F03
:100A1C00DED0FFF7C5FE401B0228F5D90320EAE023
:100A2C0000252A4B1B6813F4807F11D0E368012B3F
:100A3C0022D0002B38D103F1804303F504331A6A1A
:100A4C0022F001021A621A6A22F004021A6218E0F9
:100A5C001E4A136843F480731360FFF7A1FE064629
:100A6C001A4B1B6813F4807FE0D1FFF799FE801BB3
:100A7C006428F5D90320BEE0114A136A43F0010340
:100A8C001362E36873B3FFF78BFE06460C4B1B6ACD
:100A9C0013F0020F37D1FFF783FE801B41F288332E
:100AAC009842F3D90320A6E0052B11D0044B1A6A07
:100ABC0022F001021A621A6A22F004021A62E0E7BA
:100ACC00001002400000424280044242007000408C
:100ADC004D4B1A6A42F004021A621A6A42F0010281
:100AEC001A62CEE7FFF75CFE0646474B1B6A13F013
:100AFC00020F08D0FFF754FE801B41F28833984256
:100B0C00F3D9032077E0E5B9E369002B72D03E4AB4
:100B1C00526802F00C02082A56D0022B17D03B4B1D
:100B2C0000221A60FFF73CFE0446374B1B6813F09B
:100B3C00007F47D0FFF734FE001B0228F5D90320B5
:100B4C0059E0314AD36923F08053D361DCE72F4B52
:100B5C0000221A60FFF724FE05462B4B1B6813F08E
:100B6C00007F06D0FFF71CFE401B0228F5D903209E
:100B7C0041E0236AB3F5803F1AD023494B6823F434
:100B8C007413226A606A024313434B601F4B0122A9
:100B9C001A60FFF705FE04461B4B1B6813F0007F21
:100BAC000ED1FFF7FDFD001B0228F5D9032022E032
:100BBC00154A536823F40033A1680B435360DCE7F8
:100BCC00002018E0002016E0012B16D00E4B5B68BD
:100BDC0003F48031226A914211D103F47013626ADA
:100BEC0093420ED1002006E001207047012002E064
:100BFC00012000E0002002B070BD0120FBE70120C5
:100C0C00F9E70120F7E700BF001002406000424204
:100C1C0086B0164B0FCB0DF1180C0CE90F0040F2FF
:100C2C000123ADF80430124B5B6803F00C02082A68
:100C3C0002D0104806B07047C3F38342624412F8E6
:100C4C00102C13F4803F0CD0094B5B68C3F340436A
:100C5C00634413F8143C074800FB02F0B0FBF3F0BC
:100C6C00E8E7054800FB02F0E4E700BF9C1200082F
:100C7C000010024000127A0000093D00002800F02C
:100C8C00A08070B50D460446524B1B6803F0070359
:100C9C008B420BD24F4A136823F007030B431360AC
:100CAC00136803F007038B4240F08D80236813F028
:100CBC00020F17D013F0040F04D0474A536843F4C3
:100CCC00E0635360236813F0080F04D0424A536862
:100CDC0043F460535360404A536823F0F003A16817
:100CEC000B435360236813F0010F31D06368012B61
:100CFC0020D0022B25D0384A126812F0020F64D093
:100D0C0035494A6822F0030213434B60FFF748FD54
:100D1C000646314B5B6803F00C036268B3EB820F41
:100D2C0016D0FFF73DFD801B41F288339842F0D975
:100D3C00032045E0284A126812F4003FE0D101205C
:100D4C003EE0254A126812F0007FD9D1012037E02D
:100D5C00204B1B6803F00703AB420AD91D4A1368EA
:100D6C0023F007032B431360136803F00703AB4214
:100D7C002DD1236813F0040F06D0174A536823F4BF
:100D8C00E063E1680B435360236813F0080F07D04E
:100D9C00114A536823F46053216943EAC103536039
:100DAC00FFF736FF0C4B5B68C3F303130B4AD35CA2
:100DBC00D8400B4B18600B4B1868FFF7ADFC0020AC
:100DCC0070BD012070470120FAE70120F8E70120EF
:100DDC00F6E700BF0020024000100240B0120008ED
:100DEC000800002004000020014B1868704700BF69
:100DFC000800002008B5FFF7F7FF044B5B68C3F34E
:100E0C000223034AD35CD84008BD00BF0010024047
:100E1C00C012000808B5FFF7E7FF044B5B68C3F38B
:100E2C00C223034AD35CD84008BD00BF0010024067
:100E3C00C0120008F0B482B000252C46A3E07F4F0E
:100E4C00BB4210D007D97E4FBB420CD007F5803780
:100E5C00BB4208D013E0A7F58017BB4203D007F5BF
:100E6C007027BB4207D18B68002B58D0012B51D077
:100E7C004261082503E0A7F58017BB42F3D0FF2E93
:100E8C004FD88446FF2E4FD8A200DCF800300F2735
:100E9C00974023EA070305FA02F21343CCF800301B
:100EAC004B6813F0805F6DD0664B9A6942F001027B
:100EBC009A619B6903F001030193019BA208971CA3
:100ECC00614B53F8273004F00307BF004FF00F0CB1
:100EDC000CFA07FC23EA0C0C5C4B98422AD003F565
:100EEC008063984200F08A8003F58063984200F09A
:100EFC00878003F5806398421AD004231BE0CD68E9
:100F0C00BDE7CD680435BAE7CD680835B7E7CD68DD
:100F1C000C35B4E702610825B1E70025AFE70425DD
:100F2C00ADE700F1040CADE7A4F108029200ACE7C8
:100F3C00032300E00023BB4043EA0C030232424F80
:100F4C0047F822304B6813F4803F5BD0404A13685B
:100F5C00334313604B6813F4003F59D03C4A536839
:100F6C00334353604B6813F4801F57D0384A93684F
:100F7C00334393604B6813F4001F55D0344AD36845
:100F8C001E43D66001340B6833FA04F252D00122AE
:100F9C00A24003EA020632EA0303F3D14B68122B98
:100FAC003FF64DAF122B3FF66AAF01A757F823F06F
:100FBC00730E00080B0F0008150F0008270F000810
:100FCC008B0E00088B0E00088B0E00088B0E000891
:100FDC008B0E00088B0E00088B0E00088B0E000881
:100FEC008B0E00088B0E00088B0E00088B0E000871
:100FFC008B0E00080F0F00081B0F000801239AE747
:10100C00022398E7124A136823EA06031360A1E748
:10101C000F4A536823EA06035360A3E70C4A93680C
:10102C0023EA06039360A5E7094AD36823EA060678
:10103C00D660A7E702B0F0BC704700BF00002210DA
:10104C000000311000100240000001400008014077
:10105C00000401400AB10161704709040161704745
:10106C00C36801EA030221EA030141EA024101617A
:10107C007047704708B5054B5B69034200D108BD4A
:10108C00024B5861FFF7F5FFF9E700BF0004014080
:10109C0008B590F82130022B03D004238363012080
:1010AC0008BD0268136823F00E031360026813680E
:1010BC0023F0010313600368194A934214D01432CD
:1010CC0093421FD0143293421ED0143293421ED03E
:1010DC00143293421ED01432934202D04FF08072DD
:1010EC0003E04FF4801200E001220E4B5A60012302
:1010FC0080F82130002380F82030436B6BB1984787
:10110C000020CDE71022F0E74FF48072EDE74FF4AA
:10111C008052EAE74FF48032E7E70020C0E700BFD7
:10112C000800024000000240074AD36823F4E06341
:10113C001B041B0C000200F4E060034343F0BF638C
:10114C0043F40033D360704700ED00E030B4174B2C
:10115C00DB68C3F30223C3F10704042C28BF042467
:10116C001D1D062D18D9033B4FF0FF3505FA04F46D
:10117C0021EA0401994005FA03F322EA0303194317
:10118C0000280BDB0901C9B200F1604000F5614099
:10119C0080F8001330BC70470023E5E700F00F0027
:1011AC000901C9B2024B1954F4E700BF00ED00E08D
:1011BC0014ED00E00138B0F1807F0AD2064B586084
:1011CC00064AF02182F823100020986007221A604A
:1011DC0070470120704700BF10E000E000ED00E018
:1011EC0070470000002103E00B4B5B584350043167
:1011FC000A480B4B42189A42F6D30A4A02E00023E3
:10120C0042F8043B084B9A42F9D3FFF7E9FF00F090
:10121C000FF8FFF72FF87047D012000800000020DD
:10122C000C0000200C000020AC000020FEE70000A9
:10123C0070B500260C4D0D4C641BA410A64209D1B0
:10124C0000F01AF800260A4D0A4C641BA410A642A2
:10125C0005D170BD55F8043B98470136EEE755F8BB
:10126C00043B98470136F2E7C8120008C812000880
:10127C00C8120008CC120008F8B500BFF8BC08BCB6
:10128C009E467047F8B500BFF8BC08BC9E46704738
:10129C0002030405060708090A0B0C0D0E0F1010AB
:1012AC000000000000000000000000000102030428
:0C12BC00060708090000000001020304FE
:0412C80031010008E8
:0412CC000D01000808
:0C12D00001000000100000000024F400E9
:04000005080011F1ED
:00000001FF
