:020000040800F2
:1000000000800020ED210008630400086D04000852
:1000100000000000000000000000000000000000E0
:100020000000000000000000000000007304000851
:1000300000000000000000007D04000887040008A4
:100040003D2200083D2200083D2200083D22000814
:100050003D2200083D2200083D2200083D22000804
:100060003D2200083D2200083D2200083D220008F4
:100070003D2200083D2200083D2200083D220008E4
:100080003D2200083D2200083D2200083D220008D4
:100090003D2200083D2200083D2200083D220008C4
:1000A0003D2200083D2200083D2200083D220008B4
:0C00B0003D2200083D2200083D2200080F
:1000BC0010B5064C2378002B07D1054B002B02D032
:1000CC00044800E000BF0123237010BD0400002091
:1000DC000000000098220008044B10B5002B03D040
:1000EC000349044800E000BF10BDC04600000000FA
:1000FC000800002098220008002243088B4274D389
:10010C0003098B425FD3030A8B4244D3030B8B420C
:10011C0028D3030C8B420DD3FF22090212BA030C15
:10012C008B4202D31212090265D0030B8B4219D3F6
:10013C0000E0090AC30B8B4201D3CB03C01A524116
:10014C00830B8B4201D38B03C01A5241430B8B425E
:10015C0001D34B03C01A5241030B8B4201D30B0347
:10016C00C01A5241C30A8B4201D3CB02C01A52416E
:10017C00830A8B4201D38B02C01A5241430A8B4231
:10018C0001D34B02C01A5241030A8B4201D30B021A
:10019C00C01A5241CDD2C3098B4201D3CB01C01A34
:1001AC00524183098B4201D38B01C01A524143093E
:1001BC008B4201D34B01C01A524103098B4201D32C
:1001CC000B01C01A5241C3088B4201D3CB00C01A99
:1001DC00524183088B4201D38B00C01A5241430811
:1001EC008B4201D34B00C01A5241411A00D2014636
:1001FC00524110467047FFE701B5002000F006F8A9
:10020C0002BDC0460029F7D076E770477047C0465C
:10021C0080B582B000AF01F00BFD00F01BF800F0D0
:10022C00ABF800F079F83B1D084A12781A700123DC
:10023C005B42391D0648012200F092FA01235B4211
:10024C00391D0348012200F0E7F9ECE7B022000861
:10025C002000002090B599B000AF2C243B19180059
:10026C0034231A00002102F009F81C23FB18180093
:10027C0010231A00002102F001F83B0018001C2387
:10028C001A00002101F0FAFF21007B1802221A60EB
:10029C007B180122DA607B1810221A617B1802226B
:1002AC005A627B18802212029A627B18A022920357
:1002BC00DA627B1801221A637B18180000F0B0FE7A
:1002CC00031E01D000F0C2F81C217B1807221A6013
:1002DC007B1802225A607B1800229A607B1800223D
:1002EC00DA607B180121180001F0F8F9031E01D027
:1002FC0000F0ACF83B0002221A603B000022DA60EE
:10030C003B00180001F094FB031E01D000F09EF896
:10031C00C046BD4619B090BD80B500AF144B154A10
:10032C001A60134BE12252025A60114B00229A6060
:10033C000F4B0022DA600E4B00221A610C4B0C2280
:10034C005A610B4B00229A61094B0022DA61084B6F
:10035C0000221A62064B00225A62054B180000F06C
:10036C0003F9031E01D000F071F8C046BD4680BDF4
:10037C00200000200044004090B589B000AF0C2450
:10038C003B19180014231A00002101F077FF2C4BA5
:10039C005A692B4B802109030A435A61284B5A692D
:1003AC0080231B031340BB60BB68254B5A69244B4D
:1003BC008021C9030A435A61214B5A698023DB030C
:1003CC0013407B607B681E4B5A691D4B8021890250
:1003DC000A435A611A4B5A6980239B0213403B60B3
:1003EC003B689023DB0500222021180001F0E2FD80
:1003FC003B19802292011A603B19124A5A603B1930
:10040C0000229A603B19104A1900100001F056FCAA
:10041C0021007B1820221A607B1801225A607B185D
:10042C0000229A607B180022DA607A189023DB0590
:10043C001100180001F042FCC046BD4609B090BD49
:10044C0000100240000021100008004880B500AFE9
:10045C00C046BD4680BD80B500AFC046BD4680BD20
:10046C0080B500AFFEE780B500AFC046BD4680BD8D
:10047C0080B500AFC046BD4680BD80B500AF01F071
:10048C0007FCC046BD4680BD80B582B000AF0F4BA7
:10049C009A690E4B01210A439A610C4B9B6901220C
:1004AC0013407B607B68094BDA69084B8021490556
:1004BC000A43DA61054BDA6980235B0513403B6024
:1004CC003B68C046BD4602B080BDC046001002402D
:1004DC0090B58BB000AF786014243B19180014232E
:1004EC001A00002101F0CAFE7B681B681C4A93426B
:1004FC0032D11C4BDA691B4B802189020A43DA6129
:10050C00184BDA6980239B0213403B613B69154B06
:10051C005A69144B802189020A435A61114B5A695A
:10052C0080239B021340FB60FB6821007B180C228C
:10053C001A607B1802225A607B1800229A607B1882
:10054C000022DA607B1801221A617A189023DB05ED
:10055C001100180001F0B2FBC046BD460BB090BDB7
:10056C00004400400010024080B582B000AF7860BB
:10057C007B68002B01D1012347E07B6869229B5CDF
:10058C00DBB2002B07D17B686822002199547B6871
:10059C001800FFF79DFF7B686922242199547B6822
:1005AC001B681A687B681B6801218A431A607B6888
:1005BC00180000F0B7F90300012B01D1012324E04E
:1005CC007B685B6A002B03D07B68180000F0CAFBC9
:1005DC007B681B685A687B681B680E490A405A6026
:1005EC007B681B689A687B681B682A218A439A601F
:1005FC007B681B681A687B681B6801210A431A60B8
:10060C007B68180000F062FC03001800BD4602B0C5
:10061C0080BDC046FFB7FFFF80B588B002AFF86061
:10062C00B9603B60BB1D1A8000237B61FB686922AB
:10063C009B5CDBB2202B00D08CE0BB68002B03D082
:10064C00BB1D1B88002B01D1012384E0FB689A6839
:10065C0080235B019A4209D1FB681B69002B05D1F1
:10066C00BB680122134001D0012374E0FB686822AF
:10067C009B5C012B01D102236DE0FB6868220121F8
:10068C009954FB680022DA66FB686922212199548F
:10069C0001F00AFB03007B61FB68BA1D5021128834
:1006AC005A52FB68BA1D522112885A5235E0FB6827
:1006BC0052229B5A9BB2013B99B2FB68522299522F
:1006CC007A69F8683B68009313000022802100F0DF
:1006DC005BFC031E01D003233DE0FB689A6880237A
:1006EC005B019A4211D1FB681B69002B0DD1BB68D1
:1006FC003B613B691A88FB681B68D205D20D92B22C
:10070C001A85BB680233BB6007E0BB685A1CBA6031
:10071C001A78FB681B6892B21A85FB6852229B5AA6
:10072C009BB2002BC3D17A69F8683B680093130025
:10073C000022402100F028FC031E01D003230AE014
:10074C00FB68692220219954FB6868220021995486
:10075C00002300E002231800BD4606B080BD000057
:10076C0080B58AB002AFF860B9603B60BB1D1A80DF
:10077C000023FB61FB686A229B5CDBB2202B00D060
:10078C00C8E0BB68002B03D0BB1D1B88002B01D11C
:10079C000123C0E0FB689A6880235B019A4209D16F
:1007AC00FB681B69002B05D1BB680122134001D0EB
:1007BC000123B0E0FB6868229B5C012B01D1022372
:1007CC00A9E0FB68682201219954FB680022DA66D3
:1007DC00FB686A222221995401F066FA0300FB613E
:1007EC00FB68BA1D582112885A52FB68BA1D5A214F
:1007FC0012885A52FB689A6880235B019A420DD189
:10080C00FB681B69002B04D1FB685C22444999529C
:10081C0029E0FB685C22FF21995224E0FB689B686D
:10082C00002B0DD1FB681B69002B04D1FB685C22EB
:10083C00FF21995217E0FB685C227F21995212E04C
:10084C00FB689A6880235B059A420CD1FB681B6994
:10085C00002B04D1FB685C227F21995203E0FB68DA
:10086C005C223F2199521A23FB18FA685C21525AD8
:10087C001A803FE0FB685A229B5A9BB2013B99B20B
:10088C00FB685A229952FA69F8683B680093130086
:10089C000022202100F078FB031E01D003233AE054
:1008AC00FB689A6880235B019A4214D1FB681B6930
:1008BC00002B10D1BB687B61FB681B689B8C9BB2C7
:1008CC001A22BA18128813409AB27B691A80BB6834
:1008DC000233BB600EE0FB681B689B8C9BB2DAB2E8
:1008EC001A23FB181B88D9B2BB68581CB8600A4085
:1008FC00D2B21A70FB685A229B5A9BB2002BB9D108
:10090C00FB686A2220219954FB68682200219954C3
:10091C00002300E002231800BD4608B080BDC0468D
:10092C00FF01000090B587B000AF78600023FB603A
:10093C001723FB1810221A700A23FB1800221A80A6
:10094C001423FB1800221A801323FB1800221A70A0
:10095C007B689A687B681B691A437B685B691A43DE
:10096C007B68DB691343FB607B681B681B68BD4AB3
:10097C00134019007B681B68FA680A431A607B688D
:10098C001B685B68B84A134019007B68DA687B689F
:10099C001B680A435A607B689A697B681B6A13431D
:1009AC00FB607B681B689B68B04A134019007B682E
:1009BC001B68FA680A439A607B681B68AC4A9342CE
:1009CC0027D1AC4B1B6B03221340032B0DD01BD830
:1009DC00022B14D018D8002B02D0012B0AD013E014
:1009EC001723FB1800221A70BDE01723FB180222F4
:1009FC001A70B8E01723FB1804221A70B3E01723FF
:100A0C00FB1808221A70AEE01723FB1810221A707C
:100A1C00A9E07B681B68984A934234D1954B1A6BBA
:100A2C00C0239B021340C0229202934217D0C022D3
:100A3C009202934222D880229202934219D08022B1
:100A4C00920293421AD8002B04D080225202934275
:100A5C000AD013E01723FB1800221A7083E0172327
:100A6C00FB1802221A707EE01723FB1804221A705E
:100A7C0079E01723FB1808221A7074E01723FB186F
:100A8C0010221A706FE07B681B687C4A934234D149
:100A9C00784B1A6BC0231B031340C02212039342E2
:100AAC0017D0C0221203934222D880221203934201
:100ABC0019D08022120393421AD8002B04D0802222
:100ACC00D20293420AD013E01723FB1800221A70AB
:100ADC0049E01723FB1802221A7044E01723FB1875
:100AEC0004221A703FE01723FB1808221A703AE010
:100AFC001723FB1810221A7035E07B681B68604ABC
:100B0C00934204D11723FB1800221A702BE07B6848
:100B1C001B685C4A934204D11723FB1800221A70FD
:100B2C0021E07B681B68584A934204D11723FB18B9
:100B3C0000221A7017E07B681B68544A934204D158
:100B4C001723FB1800221A700DE07B681B68504AB3
:100B5C00934204D11723FB1800221A7003E01723C9
:100B6C00FB1810221A707B68DA6980231B029A42E8
:100B7C0000D091E01723FB181B78082B41D052DCD6
:100B8C00042B2AD04FDC002B02D0022B14D04AE0CD
:100B9C0000F038FF03005A007B685B685B08D218D2
:100BAC007B685B6819001000FFF7A6FA03001A00B7
:100BBC001423FB181A803BE07B685B685B08354AA2
:100BCC009A187B685B6819001000FFF795FA030010
:100BDC001A001423FB181A802AE000F089FE030087
:100BEC005A007B685B685B08D2187B685B681900ED
:100BFC001000FFF781FA03001A001423FB181A8067
:100C0C0016E07B685B685B08802252029A187B684E
:100C1C005B6819001000FFF76FFA03001A00142329
:100C2C00FB181A8004E01323FB1801221A70C0462B
:100C3C000A203B1814243A1912880F218A431A806F
:100C4C003B191B885B109BB20722134099B23B18CF
:100C5C003A1812880A431A807B681B683A18128863
:100C6C00DA6075E0F369FFEFFFCFFFFFFFF4FFFFE2
:100C7C000038014000100240004400400048004091
:100C8C00004C00400050004000140140001801408E
:100C9C00001C01400024F4001723FB181B78082BC0
:100CAC003FD050DC042B29D04DDC002B02D0022B82
:100CBC0013D048E000F0A6FE02007B685B685B087E
:100CCC00D2187B685B6819001000FFF715FA030057
:100CDC009AB27B681B68DA603AE07B685B685B08F9
:100CEC001F4A9A187B685B6819001000FFF704FA1A
:100CFC0003009AB27B681B68DA6029E000F0F8FD0B
:100D0C0002007B685B685B08D2187B685B68190023
:100D1C001000FFF7F1F903009AB27B681B68DA60E8
:100D2C0016E07B685B685B08802212029A187B686D
:100D3C005B6819001000FFF7DFF903009AB27B68BB
:100D4C001B68DA6004E01323FB1801221A70C046FA
:100D5C001323FB181B781800BD4607B090BDC04686
:100D6C0000127A0080B582B000AF78607B685B6A55
:100D7C00012213400BD07B681B685B684A4A134006
:100D8C0019007B689A6A7B681B680A435A607B6807
:100D9C005B6A022213400BD07B681B685B68434A7A
:100DAC00134019007B68DA6A7B681B680A435A6037
:100DBC007B685B6A042213400BD07B681B685B6802
:100DCC003B4A134019007B681A6B7B681B680A430B
:100DDC005A607B685B6A082213400BD07B681B68E7
:100DEC005B68344A134019007B685A6B7B681B683C
:100DFC000A435A607B685B6A102213400BD07B68F5
:100E0C001B689B682C4A134019007B689A6B7B68A3
:100E1C001B680A439A607B685B6A202213400BD0E4
:100E2C007B681B689B68254A134019007B68DA6B4A
:100E3C007B681B680A439A607B685B6A402213409C
:100E4C001DD07B681B685B681D4A134019007B68CA
:100E5C001A6C7B681B680A435A607B681A6C802387
:100E6C005B039A420BD17B681B685B68154A134085
:100E7C0019007B685A6C7B681B680A435A607B6854
:100E8C005B6A802213400BD07B681B685B680E4A40
:100E9C00134019007B689A6C7B681B680A435A6084
:100EAC00C046BD4602B080BDFFFFFDFFFFFFFEFF49
:100EBC00FFFFFBFFFF7FFFFFFFEFFFFFFFDFFFFFEA
:100ECC00FFFFEFFFFFFF9FFFFFFFF7FF80B586B02F
:100EDC0002AF78600023FB607B680022DA6600F0CA
:100EEC00E3FE0300FB607B681B68234A934209D036
:100EFC007B681B68214A934204D07B681B68204A9C
:100F0C00934227D17B681B681B6808221340082B6F
:100F1C000CD1FB688022910378681A4A0092002257
:100F2C0000F032F8031E01D0032320E07B681B681D
:100F3C001B6804221340042B0CD1FB688022D103C4
:100F4C007868104A0092002200F01EF8031E01D0AF
:100F5C0003230CE07B686922202199547B686A2268
:100F6C00202199547B686822002199540023180091
:100F7C00BD4604B080BDC04600380140004400406E
:100F8C0000480040FFFFFF0180B584B000AFF8605F
:100F9C00B9603B60FB1D1A702BE0BB69013328D094
:100FAC00BB69002B07D000F07FFE02003B68D31A10
:100FBC00BA699A421DD2FB681B681A68FB681B68E9
:100FCC0016490A401A60FB681B689A68FB681B6824
:100FDC0001218A439A60FB68692220219954FB689D
:100FEC006A2220219954FB6868220021995403231A
:100FFC000FE0FB681B68DB69BA681340BA68D31A48
:10100C005A425341DBB21A00FB1D1B789A42C4D0E2
:10101C0000231800BD4604B080BDC0465FFEFFFF34
:10102C0080B586B000AF786000233B617B681B689D
:10103C000122134000D18DE0C44B5B680C2213409D
:10104C00042B0ED0C14B5B680C221340082B16D11D
:10105C00BE4B5A68C0235B021A4080235B029A4243
:10106C000DD1BA4B1A6880239B02134000D170E05B
:10107C007B685B68002B00D06BE0012327E37B6867
:10108C005B68012B07D1B14B1A68B04B8021490228
:10109C000A431A602FE07B685B68002B0CD1AB4BCA
:1010AC001A68AA4BAA490A401A60A84B1A68A74B9F
:1010BC00A8490A401A601EE07B685B68052B0ED1BC
:1010CC00A24B1A68A14B8021C9020A431A609F4B9C
:1010DC001A689E4B802149020A431A600BE09B4B15
:1010EC001A689A4B9A490A401A60984B1A68974B9F
:1010FC0098490A401A607B685B68002B14D000F09A
:10110C00D3FD03003B6108E000F0CEFD02003B691B
:10111C00D31A642B01D90323D9E28C4B1A68802390
:10112C009B021340F0D015E000F0BEFD03003B61C4
:10113C0008E000F0B9FD02003B69D31A642B01D919
:10114C000323C4E2814B1A6880239B021340F0D125
:10115C0000E0C0467B681B680222134000D16CE0A3
:10116C007A4B5B680C2213400ED0784B5B680C22D8
:10117C001340082B1FD1754B5A68C0235B021A40D1
:10118C0080231B029A4216D1704B1B68022213401B
:10119C0005D07B68DB68012B01D0012397E26B4BF8
:1011AC001B68F822934319007B681B69DA00674BB4
:1011BC000A431A6041E07B68DB68002B24D0634B48
:1011CC001A68624B01210A431A6000F06DFD03009E
:1011DC003B6108E000F068FD02003B69D31A022B6A
:1011EC0001D9032373E2594B1B6802221340F1D03F
:1011FC00564B1B68F822934319007B681B69DA0075
:10120C00524B0A431A6018E0504B1A684F4B01219D
:10121C008A431A6000F048FD03003B6108E000F0CF
:10122C0043FD02003B69D31A022B01D903234EE282
:10123C00464B1B6802221340F1D17B681B680822C5
:10124C00134036D07B68DB69002B19D03F4B5A6AB0
:10125C003E4B01210A435A6200F026FD03003B611C
:10126C0008E000F021FD02003B69D31A022B01D9E2
:10127C0003232CE2354B5B6A02221340F1D018E0B9
:10128C00324B5A6A314B01218A435A6200F00CFDF1
:10129C0003003B6108E000F007FD02003B69D31A34
:1012AC00022B01D9032312E2284B5B6A0222134062
:1012BC00F1D17B681B680422134000D1B4E01720E5
:1012CC003B1800221A70214BDA6980235B0513400E
:1012DC0010D11E4BDA691D4B802149050A43DA6196
:1012EC001A4BDA6980235B051340FB60FB683B18E3
:1012FC0001221A70184B1A6880235B0013401AD114
:10130C00154B1A68144B802149000A431A6000F0EF
:10131C00CBFC03003B6108E000F0C6FC02003B691B
:10132C00D31A642B01D90323D1E10B4B1A68802308
:10133C005B001340F0D07B689B68012B0ED1034BF4
:10134C001A6A024B01210A431A6235E0001002406E
:10135C00FFFFFEFFFFFFFBFF007000407B689B68F8
:10136C00002B0CD1CA4B1A6AC94B01218A431A6251
:10137C00C74B1A6AC64B04218A431A621CE07B686D
:10138C009B68052B0CD1C24B1A6AC14B04210A4332
:10139C001A62BF4B1A6ABE4B01210A431A620BE058
:1013AC00BB4B1A6ABA4B01218A431A62B84B1A6AB0
:1013BC00B74B04218A431A627B689B68002B14D0BC
:1013CC0000F072FC03003B6109E000F06DFC0200D0
:1013DC003B69D31AAF4A934201D9032377E1AC4B53
:1013EC001B6A02221340F0D013E000F05DFC0300F6
:1013FC003B6109E000F058FC02003B69D31AA54A96
:10140C00934201D9032362E1A14B1B6A02221340D0
:10141C00F0D11723FB181B78012B05D19C4BDA69F3
:10142C009B4B9D490A40DA617B681B681022134074
:10143C0063D07B685B69012B2AD1954B5A6B944B1B
:10144C0004210A435A63924B5A6B914B01210A4374
:10145C005A6300F029FC03003B6108E000F024FC17
:10146C0002003B69D31A022B01D903232FE1884BCD
:10147C005B6B02221340F1D0854B5B6BF8229343DC
:10148C0019007B689B69DA00814B0A435A6334E08C
:10149C007B685B69053311D17D4B5A6B7C4B042106
:1014AC008A435A637A4B5B6BF822934319007B682F
:1014BC009B69DA00764B0A435A631EE0744B5A6BF5
:1014CC00734B04210A435A63714B5A6B704B0121C5
:1014DC008A435A6300F0E8FB03003B6108E000F02C
:1014EC00E3FB02003B69D31A022B01D90323EEE084
:1014FC00674B5B6B02221340F1D17B681B68202287
:10150C0013405CD0624B5B680C2213400C2B0ED04A
:10151C005F4B5B680C221340082B14D15C4B5A6850
:10152C00C0235B021A40C0235B029A420BD1584B7A
:10153C005A6B80235B02134040D07B681B6A012BE3
:10154C003CD00123C3E07B681B6A002B1BD0504BA3
:10155C005A6B4F4B802149020A435A6300F0A4FB9B
:10156C0003003B6108E000F09FFB02003B69D31ACB
:10157C00022B01D90323AAE0454B5A6B80235B0253
:10158C001340F0D01BE0424B5A6B414B43490A408D
:10159C005A6300F089FB03003B6108E000F084FB18
:1015AC0002003B69D31A022B01D903238FE0384B7D
:1015BC005A6B80235B021340F0D100E0C0467B687D
:1015CC005B6A002B00D181E0314B5B680C2213402D
:1015DC00082B00D178E07B685B6A022B4CD12C4B3A
:1015EC001A682B4B2E490A401A6000F05DFB030071
:1015FC003B6108E000F058FB02003B69D31A022B58
:10160C0001D9032363E0224B1A6880239B04134007
:10161C00F0D11F4BDB6A0F22934319007B681A6BC6
:10162C001B4B0A43DA621A4B5B681E4A13401900C3
:10163C007B68DA6A7B689B6A1A43154B0A435A60CB
:10164C00134B1A68124B802149040A431A6000F0AC
:10165C002BFB03003B6108E000F026FB02003B691A
:10166C00D31A022B01D9032331E0094B1A688023CA
:10167C009B041340F0D029E0054B1A68044B084931
:10168C000A401A6000F010FB03003B6115E0C046F5
:10169C000010024088130000FFFFFFEFFFFFFEFF6A
:1016AC00FFFFFFFEFF7FC2FF00F0FEFA02003B6966
:1016BC00D31A022B01D9032309E0074B1A688023A4
:1016CC009B041340F0D101E0012300E0002318003B
:1016DC00BD4606B080BDC0460010024080B584B047
:1016EC0000AF786039600023FB607B4B1B680122E4
:1016FC0013403A689A4211D9774B1B6801229343E5
:10170C001900754B3A680A431A60734B1B68012227
:10171C0013403A689A4201D00123D8E07B681B68D9
:10172C000222134009D06D4B5B68F02293431900E1
:10173C007B689A68694B0A435A607B681B68012274
:10174C00134000D189E07B685B68012B07D1634BA8
:10175C001A6880239B02134020D10123B7E07B68D9
:10176C005B68022B07D15D4B1A6880239B041340E6
:10177C0014D10123ABE07B685B68032B07D1574B7B
:10178C005A6B80235B02134008D101239FE0534B1B
:10179C001B680222134001D1012398E04F4B5B6878
:1017AC000322934319007B685A684C4B0A435A60D6
:1017BC0000F07AFA0300FB607B685B68012B11D1A7
:1017CC0009E000F071FA0200FB68D31A444A934214
:1017DC0001D903237BE0414B5B680C221340042BA3
:1017EC00EFD13AE07B685B68022B11D109E000F085
:1017FC005BFA0200FB68D31A394A934201D90323DE
:10180C0065E0364B5B680C221340082BEFD124E0CB
:10181C007B685B68032B1BD109E000F045FA0200E2
:10182C00FB68D31A2E4A934201D903234FE02B4B6A
:10183C005B680C2213400C2BEFD10EE000F034FA55
:10184C000200FB68D31A264A934201D903233EE0D7
:10185C00224B5B680C221340F0D11F4B1B680122FA
:10186C0013403A689A4211D21B4B1B6801229343D6
:10187C001900194B3A680A431A60174B1B6801226E
:10188C0013403A689A4201D0012320E07B681B6820
:10189C000422134009D0114B5B68124A1340190003
:1018AC007B68DA680D4B0A435A6000F021F801009E
:1018BC000A4B5B681B090F2213400B4AD35C0A00CE
:1018CC00DA400A4B1A60002000F0C6F90023180019
:1018DC00BD4604B080BDC04600200240001002404E
:1018EC0088130000FFF8FFFFD4220008000000203E
:1018FC0090B58FB000AF1423FB18384A13CA13C32A
:10190C0012681A603B1D364A13CA13C312681A6058
:10191C000023FB620023BB6200237B6300237B62FA
:10192C0000233B632F4B5B68FB62FB6A0C2213406A
:10193C000C2B47D049D8042B02D0082B03D044E001
:10194C00294B3B6344E0FB6A9B0C0F22134014228F
:10195C00BA18D35C7B62234BDB6A0F2213403A1D0F
:10196C00D35CBB62FA6AC0235B021A4080235B0221
:10197C009A4209D1B96A1C48FEF7BEFB03001A0053
:10198C007B6A53437B631AE0FA6AC0235B021A40FA
:10199C00C0235B029A4209D1B96A1448FEF7ACFB2A
:1019AC0003001A007B6A53437B6308E0B96A0E4854
:1019BC00FEF7A2FB03001A007B6A53437B637B6B2D
:1019CC003B6305E0094B3B6302E0074B3B63C046BE
:1019DC003B6B1800BD460FB090BDC046B42200084A
:1019EC00C42200080010024000127A00006CDC02D5
:1019FC0080B500AF024B1B681800BD4680BDC046C9
:101A0C000000002080B500AFFFF7F2FF0100064B8D
:101A1C005B681B0A07221340044AD35CD9400B00B5
:101A2C001800BD4680BDC04600100240E4220008EC
:101A3C0080B586B000AF786000233B610023FB606B
:101A4C007B681A6880235B02134000D18EE017205C
:101A5C003B1800221A706E4BDA6980235B05134029
:101A6C0010D16B4BDA696A4B802149050A43DA6164
:101A7C00674BDA6980235B051340BB60BB683B187E
:101A8C0001221A70634B1A6880235B0013401AD131
:101A9C00604B1A685F4B802149000A431A6000F0C2
:101AAC0003F903003B6108E000F0FEF802003B691B
:101ABC00D31A642B01D90323A6E0564B1A68802352
:101ACC005B001340F0D0524B1A6AC0239B001340AA
:101ADC00FB60FB68002B34D07B685A68C0239B00EA
:101AEC001340FA689A422CD0494B1B6A4A4A13405D
:101AFC00FB60474B1A6A464B802149020A431A6223
:101B0C00434B1A6A424B45490A401A62404BFA68E9
:101B1C001A62FB680122134013D000F0C5F80300D1
:101B2C003B6109E000F0C0F802003B69D31A3C4A63
:101B3C00934201D9032367E0354B1B6A0222134001
:101B4C00F0D0334B1B6A344A134019007B685A6837
:101B5C002F4B0A431A621723FB181B78012B05D154
:101B6C002B4BDA692A4B2F490A40DA617B681B68D8
:101B7C000122134009D0264B1B6B032293431900FF
:101B8C007B689A68224B0A431A637B681B680222A3
:101B9C00134009D01E4B1B6B234A134019007B6862
:101BAC00DA681B4B0A431A637B681A688023DB02D2
:101BBC00134009D0164B1B6B1C4A134019007B6851
:101BCC001A69134B0A431A637B681B682022134063
:101BDC0009D00F4B1B6B1022934319007B685A6979
:101BEC000B4B0A431A637B681A688023DB00134093
:101BFC0009D0074B1B6B4022934319007B689A69F1
:101C0C00034B0A431A6300231800BD4606B080BD7F
:101C1C000010024000700040FFFCFFFFFFFFFEFFC2
:101C2C0088130000FFFFFFEFFFFFFCFFFFFFF3FF38
:101C3C0080B500AF074B1A68064B10210A431A6097
:101C4C00002000F009F8FEF71FFC00231800BD4629
:101C5C0080BDC0460020024080B582B000AF7860E5
:101C6C00FFF7C6FE0200FA2399001000FEF744FAB3
:101C7C000300180000F063FA796801235B4200222C
:101C8C00180000F047FA00231800BD4602B080BDD2
:101C9C0080B500AF034B1B685A1C024B1A60C04640
:101CAC00BD4680BD9000002080B500AF024B1B6884
:101CBC001800BD4680BDC0469000002080B586B09F
:101CCC0000AF7860396000237B610023FB60002348
:101CDC003B6155E13B681B6801217A6991400A0020
:101CEC001340FB60FB68002B00D146E13B685B684E
:101CFC00022B03D03B685B68122B23D17B69DA087B
:101D0C007B6808329200D3583B617B6907221340F1
:101D1C009B000F229A401300DA433B6913403B614E
:101D2C003B681A697B6907210B409B009A401300A2
:101D3C003A6913433B617B69DA087B68083292008D
:101D4C003969D1507B681B683B617B695B0003225E
:101D5C009A401300DA433B6913403B613B685B6874
:101D6C0003221A407B695B009A4013003A691343C3
:101D7C003B617B683A691A603B685B68012B0BD04E
:101D8C003B685B68022B07D03B685B68112B03D068
:101D9C003B685B68122B30D17B689B683B617B692D
:101DAC005B0003229A401300DA433B6913403B610A
:101DBC003B68DA687B695B009A4013003A6913430D
:101DCC003B617B683A699A607B685B683B61012286
:101DDC007B699A401300DA433B6913403B613B68D3
:101DEC005B681B0901221A407B699A4013003A690F
:101DFC0013433B617B683A695A607B68DB683B61E3
:101E0C007B695B0003229A401300DA433B69134061
:101E1C003B613B689A687B695B009A4013003A69A6
:101E2C0013433B617B683A69DA603B685A688023EC
:101E3C005B05134000D1A0E0574B9A69564B01212A
:101E4C000A439A61544B9B6901221340BB60BB68E7
:101E5C00524A7B699B0802339B009B583B617B6910
:101E6C00032213409B000F229A401300DA433B6974
:101E7C0013403B617A689023DB059A4219D07B684A
:101E8C00474A934213D07B68464A93420DD07B68F5
:101E9C00454A934207D07B68444A934201D10423BC
:101EAC0008E0052306E0032304E0022302E00123FB
:101EBC0000E000237A6903210A40920093403A69BA
:101ECC0013433B6135497B699B0802339B003A699C
:101EDC005A50374B1B683B61FB68DA433B69134034
:101EEC003B613B685A6880235B02134003D03A691C
:101EFC00FB6813433B612E4B3A691A602C4B5B68B1
:101F0C003B61FB68DA433B6913403B613B685A68B1
:101F1C0080239B02134003D03A69FB6813433B6157
:101F2C00234B3A695A60224B9B683B61FB68DA434E
:101F3C003B6913403B613B685A6880235B03134049
:101F4C0003D03A69FB6813433B61194B3A699A60B9
:101F5C00174BDB683B61FB68DA433B6913403B6121
:101F6C003B685A6880239B03134003D03A69FB6893
:101F7C0013433B610E4B3A69DA607B6901337B6139
:101F8C003B681A687B69DA40131E00D0A2E6C04693
:101F9C00C046BD4606B080BD0010024000000140A6
:101FAC000004004800080048000C004800100048DD
:101FBC000004014080B582B000AF786008001100C9
:101FCC00BB1C021C1A807B1C0A1C1A707B1C1B7805
:101FDC00002B04D0BB1C1A887B689A6103E0BB1CE5
:101FEC001A887B689A62C046BD4602B080BD00006C
:101FFC0090B583B000AF02003960FB1D1A70FB1D59
:10200C001B787F2B32D92F4AFB1D1B7819000F230D
:10201C000B40083B9B0806339B00D31804331B680A
:10202C00FA1D1278110003220A40D200FF219140C0
:10203C000A00D2431A4011003B689B01FF221A4050
:10204C00FB1D1B78180003230340DB009A401D483E
:10205C00FB1D1B781C000F232340083B9B080A43E5
:10206C0006339B00C31804331A6027E0164AFB1D85
:10207C001B785BB29B08C0339B009B58FA1D1278EF
:10208C00110003220A40D200FF2191400A00D243E2
:10209C001A4011003B689B01FF221A40FB1D1B7864
:1020AC00180003230340DB009A400748FB1D1B78F4
:1020BC005BB29B080A43C0339B001A50C046BD4616
:1020CC0003B090BD00ED00E000E100E080B582B00F
:1020DC0000AF78607B685A1E80235B049A4201D360
:1020EC00012310E00A4B7A68013A5A6001235B42E3
:1020FC0003211800FFF77CFF054B00229A60044B6C
:10210C0007221A6000231800BD4602B080BDC046ED
:10211C0010E000E080B584B000AFB9607A600F21A8
:10212C007B18021C1A70BA687B181B785BB2110002
:10213C001800FFF75DFFC046BD4604B080BD80B5FA
:10214C0082B000AF78607B681800FFF7BFFF030018
:10215C001800BD4602B080BD80B500AF1A4B1A689E
:10216C00194B01210A431A60174B5A68164B174931
:10217C000A405A60144B1A68134B15490A401A60EE
:10218C00114B1A68104B13490A401A600E4B5A68CF
:10219C000D4B11490A405A600B4BDA6A0A4B0F215E
:1021AC008A43DA62084B1A6B074B0C490A401A63D4
:1021BC00054B5A6B044B01218A435A63024B002294
:1021CC009A60C046BD4680BD001002400CB8FF08A6
:1021DC00FFFFF6FEFFFFFBFFFFFFC0FFACFEF0FFB3
:1021EC000D4885460D480E490E4A002302E0D4588E
:1021FC00C4500433C4188C42F9D30B4A0B4C002343
:10220C0001E013600432A242FBD3FFF7A5FF00F0FC
:10221C0011F8FDF7FDFFFEE7008000200000002014
:10222C0004000020F4220008040000209400002088
:10223C00FEE7000070B500260C4D0D4C641BA4107D
:10224C00A64209D1002600F021F80A4D0A4C641B65
:10225C00A410A64205D170BDB300EB5898470136C7
:10226C00EEE7B300EB5898470136F2E7EC22000892
:10227C00EC220008EC220008F0220008030082186F
:10228C00934200D1704719700133F9E7F8B5C04695
:10229C00F8BC08BC9E467047F8B5C046F8BC08BCF4
:0422AC009E46704793
:1022B0006100000002030405060708090A0B0C0D63
:1022C0000E0F10100102030405060708090A0B0C83
:1022D0000D0E0F10000000000000000001020304BA
:0C22E000060708090000000001020304CA
:0422EC00E500000801
:0422F000BD00000825
:0422F40000127A005A
:04000005080021EDE1
:00000001FF
