:020000040800F2
:100000000080002079260008B7040008C104000819
:1000100000000000000000000000000000000000E0
:10002000000000000000000000000000C7040008FD
:100030000000000000000000D1040008DB040008FC
:10004000C9260008C9260008C9260008C9260008D4
:10005000C9260008C9260008C9260008C9260008C4
:10006000C9260008C9260008E9040008C9260008B6
:10007000C9260008C9260008C9260008C9260008A4
:10008000C9260008C9260008C9260008C926000894
:10009000C9260008C9260008C9260008C926000884
:1000A000C9260008C9260008C9260008C926000874
:0C00B000C9260008C9260008C92600085F
:1000BC0010B5064C2378002B07D1054B002B02D032
:1000CC00044800E000BF0123237010BD0C00002089
:1000DC000000000024270008044B10B5002B03D0AF
:1000EC000349044800E000BF10BDC04600000000FA
:1000FC001000002024270008002243088B4274D3F0
:10010C0003098B425FD3030A8B4244D3030B8B420C
:10011C0028D3030C8B420DD3FF22090212BA030C15
:10012C008B4202D31212090265D0030B8B4219D3F6
:10013C0000E0090AC30B8B4201D3CB03C01A524116
:10014C00830B8B4201D38B03C01A5241430B8B425E
:10015C0001D34B03C01A5241030B8B4201D30B0347
:10016C00C01A5241C30A8B4201D3CB02C01A52416E
:10017C00830A8B4201D38B02C01A5241430A8B4231
:10018C0001D34B02C01A5241030A8B4201D30B021A
:10019C00C01A5241CDD2C3098B4201D3CB01C01A34
:1001AC00524183098B4201D38B01C01A524143093E
:1001BC008B4201D34B01C01A524103098B4201D32C
:1001CC000B01C01A5241C3088B4201D3CB00C01A99
:1001DC00524183088B4201D38B00C01A5241430811
:1001EC008B4201D34B00C01A5241411A00D2014636
:1001FC00524110467047FFE701B5002000F006F8A9
:10020C0002BDC0460029F7D076E770477047C0465C
:10021C0080B500AF01F058FD00F016F800F0BEF804
:10022C0000F09EF800F064F80549064B0322180014
:10023C0000F062FAFA239B00180001F0A9FDF9E71F
:10024C003C2700086C00002090B599B000AF2C241E
:10025C003B19180034231A00002102F055FA1C2314
:10026C00FB18180010231A00002102F04DFA3B0075
:10027C0018001C231A00002102F046FA3B19202218
:10028C001A603B1901221A623B1900225A623B196F
:10029C00180000F019FF031E01D000F001F91C2119
:1002AC007B1807221A607B1803225A607B180022E5
:1002BC009A607B180022DA607B180121180001F08B
:1002CC0089FA031E01D000F0EBF83B0002221A6001
:1002DC003B000022DA603B00180001F0F5FB031E26
:1002EC0001D000F0DDF8C046BD4619B090BD00004D
:1002FC0080B500AF002200211C2002F07FF91C20E9
:10030C0002F091F9144B154A1A60134BE122520278
:10031C005A60114B00229A600F4B0022DA600E4B90
:10032C0000221A610C4B0C225A610B4B00229A6171
:10033C00094B0022DA61084B00221A62064B00229C
:10034C005A62054B180000F083F9031E01D000F02F
:10035C00A7F8C046BD4680BD6C000020004400409C
:10036C0080B582B000AF0C4B5A690B4B01210A438C
:10037C005A61094B5B69012213407B607B68002248
:10038C0000210A2002F03AF90A2002F04CF9C0468A
:10039C00BD4602B080BDC0460010024090B589B089
:1003AC0000AF0C243B19180014231A00002102F092
:1003BC00ABF92C4B5A692B4B802109030A435A6128
:1003CC00284B5A6980231B031340BB60BB68254B29
:1003DC005A69244B8021C9030A435A61214B5A693B
:1003EC008023DB0313407B607B681E4B5A691D4BDB
:1003FC00802189020A435A611A4B5A6980239B0255
:10040C0013403B603B689023DB0500222021180041
:10041C0001F05AFE3B19802292011A603B19124AD4
:10042C005A603B1900229A603B19104A19001000BF
:10043C0001F0D2FC21007B1820221A607B180122CB
:10044C005A607B1800229A607B180022DA607A18B6
:10045C009023DB051100180001F0BEFCC046BD4620
:10046C0009B090BD001002400000211000080048A7
:10047C0080B582B000AF78609023DB052021180096
:10048C0001F03FFEC046BD4602B080BD80B584B0D1
:10049C0000AF78600123FB60C046BD4604B080BD50
:1004AC0080B500AFC046BD4680BD80B500AFC0462C
:1004BC00BD4680BD80B500AFFEE780B500AFC0463D
:1004CC00BD4680BD80B500AFC046BD4680BD80B581
:1004DC0000AF01F041FCC046BD4680BD80B500AF09
:1004EC00034B180001F0D6FEC046BD4680BDC04689
:1004FC002800002080B582B000AF0F4B9A690E4BDC
:10050C0001210A439A610C4B9B69012213407B60C9
:10051C007B68094BDA69084B802149050A43DA618B
:10052C00054BDA6980235B0513403B603B68C04692
:10053C00BD4602B080BDC0460010024090B58BB0E5
:10054C0000AF786014243B19180014231A00002102
:10055C0002F0DAF87B681B68384A934269D1384B51
:10056C00DA69374B802189020A43DA61344BDA6944
:10057C0080239B0213403B613B69314B5A69304BE2
:10058C00802189020A435A612D4B5A6980239B02B0
:10059C001340FB60FB6821007B180C221A607B184F
:1005AC0002225A607B1800229A607B180022DA60C3
:1005BC007B1801221A617A189023DB0511001800B0
:1005CC0001F00AFC1F4B204A1A601E4B10225A6085
:1005DC001C4B00229A601B4B8022DA60194B0022C4
:1005EC001A61184B00225A61164B20229A61154B46
:1005FC0080229201DA61134B180001F09DFD031E5D
:10060C0001D0FFF74DFF114AA823D3580F49F02210
:10061C009343A8228B500D4AA823D3580B49902200
:10062C001343A8228B507B68064A9A66054B7A685E
:10063C005A62C046BD460BB090BDC0460044004057
:10064C0000100240280000201C0002400000024064
:10065C0080B582B000AF78607B68002B01D101239C
:10066C0044E07B685B6F002B07D17B687022002114
:10067C0099547B681800FFF761FF7B6824225A6746
:10068C007B681B681A687B681B6801218A431A60A7
:10069C007B68180000F0C8F80300012B01D101237E
:1006AC0024E07B685B6A002B03D07B68180000F0A9
:1006BC00EBFA7B681B685A687B681B680D490A401B
:1006CC005A607B681B689A687B681B682A218A437E
:1006DC009A607B681B681A687B681B6801210A4357
:1006EC001A607B68180000F083FB03001800BD46FD
:1006FC0002B080BDFFB7FFFF80B584B000AFF860DB
:10070C00B960BB1D1A80FB685B6F202B00D077E0B3
:10071C00BB68002B03D0BB1D1B88002B01D1012310
:10072C006FE0FB689A6880235B019A4209D1FB68F1
:10073C001B69002B05D1BB680122134001D001239A
:10074C005FE0FB6870229B5C012B01D1022358E017
:10075C00FB68702201219954FB68BA68DA64FB6863
:10076C00BA1D502112885A52FB68BA1D52211288A8
:10077C005A52FB680022DA67FB6821225A67FB6831
:10078C009B6E002B2AD0FB689B6E204A9A62FB68FA
:10079C009B6E1F4ADA62FB689B6E1E4A1A63FB68EB
:1007AC009B6E00225A63FB68986EFB68DB6C190029
:1007BC00FB681B6828331A00BB1D1B8801F004FD65
:1007CC00031E0BD0FB681022DA67FB687022002135
:1007DC009954FB6820225A67012312E0FB681B68BE
:1007EC0040221A62FB68702200219954FB681B6836
:1007FC009A68FB681B6880210A439A60002300E01A
:10080C0002231800BD4604B080BDC046E90F0008A5
:10081C00391000085710000880B582B000AF78601E
:10082C00C046BD4602B080BD80B588B000AF7860D0
:10083C000023BB611723FB1800221A707B689A688F
:10084C007B681B691A437B685B691A437B68DB69AD
:10085C0013433B617B681B681B68C24A1340190039
:10086C007B681B683A690A431A607B681B685B6883
:10087C00BD4A134019007B68DA687B681B680A4321
:10088C005A607B689B693B617B681B6A3A691343BE
:10089C003B617B681B689B68B44A134019007B68FA
:1008AC001B683A690A439A607B681B68B04A93429A
:1008BC0027D1B04B1B6B03221340032B0DD01BD83D
:1008CC00022B14D018D8002B02D0012B0AD013E025
:1008DC001F23FB1800221A70BDE01F23FB180222F5
:1008EC001A70B8E01F23FB1804221A70B3E01F2300
:1008FC00FB1808221A70AEE01F23FB1810221A7086
:10090C00A9E07B681B689C4A934234D1994B1A6BC3
:10091C00C0239B021340C0229202934217D0C022E4
:10092C009202934222D880229202934219D08022C2
:10093C00920293421AD8002B04D080225202934286
:10094C000AD013E01F23FB1800221A7083E01F2328
:10095C00FB1802221A707EE01F23FB1804221A7067
:10096C0079E01F23FB1808221A7074E01F23FB1870
:10097C0010221A706FE07B681B68804A934234D156
:10098C007C4B1A6BC0231B031340C02212039342EF
:10099C0017D0C0221203934222D880221203934212
:1009AC0019D08022120393421AD8002B04D0802233
:1009BC00D20293420AD013E01F23FB1800221A70B4
:1009CC0049E01F23FB1802221A7044E01F23FB1876
:1009DC0004221A703FE01F23FB1808221A703AE019
:1009EC001F23FB1810221A7035E07B681B68644AC1
:1009FC00934204D11F23FB1800221A702BE07B6852
:100A0C001B68604A934204D11F23FB1800221A7002
:100A1C0021E07B681B685C4A934204D11F23FB18BE
:100A2C0000221A7017E07B681B68584A934204D165
:100A3C001F23FB1800221A700DE07B681B68544AB8
:100A4C00934204D11F23FB1800221A7003E01F23CA
:100A5C00FB1810221A707B68DA6980231B029A42F9
:100A6C0000D099E01F23FB181B78082B3FD04EDCDD
:100A7C00042B28D04BDC002B02D0022B14D046E0E8
:100A8C0001F00CF80300FB60FB685A007B685B68A4
:100A9C005B08D2187B685B6819001000FFF72CFB11
:100AAC0003009BB2BB6137E07B685B685B08394A2B
:100ABC009A187B685B6819001000FFF71DFB030098
:100ACC009BB2BB6128E000F05FFF0300FB60FB689A
:100ADC005A007B685B685B08D2187B685B681900FE
:100AEC001000FFF709FB03009BB2BB6114E07B68AD
:100AFC005B685B08802252029A187B685B6819005D
:100B0C001000FFF7F9FA03009BB2BB6104E0172356
:100B1C00FB1801221A70C046BB690F2B1CD9BA698D
:100B2C0080235B029A4217D2BB699AB20A203B1807
:100B3C000F218A431A80BB695B089BB207221340C2
:100B4C0099B23B183A1812880A431A807B681B68C2
:100B5C003A181288DA6088E01723FB1801221A7001
:100B6C0083E0C046F369FFEFFFCFFFFFFFF4FFFF09
:100B7C000038014000100240004400400048004092
:100B8C00004C00400050004000140140001801408F
:100B9C00001C01400024F4001F23FB181B78082BB9
:100BAC003DD04CDC042B27D049DC002B02D0022B8F
:100BBC0013D044E000F072FF0300FB607B685B68BD
:100BCC005A08FB68D2187B685B6819001000FFF7A5
:100BDC0093FA03009BB2BB6136E07B685B685B08F1
:100BEC00284A9A187B685B6819001000FFF784FA92
:100BFC0003009BB2BB6127E000F0C6FE0300FB6064
:100C0C007B685B685A08FB68D2187B685B681900C4
:100C1C001000FFF771FA03009BB2BB6114E07B6814
:100C2C005B685B08802212029A187B685B6819006B
:100C3C001000FFF761FA03009BB2BB6104E01723BD
:100C4C00FB1801221A70C046BB690F2B09D9BA696F
:100C5C0080235B029A4204D27B681B68BA69DA6013
:100C6C0003E01723FB1801221A707B6800221A6616
:100C7C007B6800225A661723FB181B781800BD46A8
:100C8C0008B080BD00127A0080B582B000AF7860E9
:100C9C007B685B6A012213400BD07B681B685B6826
:100CAC004A4A134019007B689A6A7B681B680A439E
:100CBC005A607B685B6A022213400BD07B681B680E
:100CCC005B68434A134019007B68DA6A7B681B68CF
:100CDC000A435A607B685B6A042213400BD07B6822
:100CEC001B685B683B4A134019007B681A6B7B6876
:100CFC001B680A435A607B685B6A082213400BD05E
:100D0C007B681B685B68344A134019007B685A6B1C
:100D1C007B681B680A435A607B685B6A102213402D
:100D2C000BD07B681B689B682C4A134019007B68AE
:100D3C009A6B7B681B680A439A607B685B6A20220B
:100D4C0013400BD07B681B689B68254A1340190025
:100D5C007B68DA6B7B681B680A439A607B685B6A0A
:100D6C00402213401DD07B681B685B681D4A1340F2
:100D7C0019007B681A6C7B681B680A435A607B6895
:100D8C001A6C80235B039A420BD17B681B685B68EF
:100D9C00154A134019007B685A6C7B681B680A4320
:100DAC005A607B685B6A802213400BD07B681B689F
:100DBC005B680E4A134019007B689A6C7B681B6851
:100DCC000A435A60C046BD4602B080BDFFFFFDFF1E
:100DDC00FFFFFEFFFFFFFBFFFF7FFFFFFFEFFFFFAC
:100DEC00FFDFFFFFFFFFEFFFFFFF9FFFFFFFF7FF9F
:100DFC0080B586B002AF78607B680022DA6700F0BD
:100E0C00BDFF0300FB607B681B681B680822134056
:100E1C00082B0CD1FB68802291037868154A00924C
:100E2C00002200F029F8031E01D003231EE07B688A
:100E3C001B681B6804221340042B0CD1FB68802216
:100E4C00D10378680B4A0092002200F015F8031EBB
:100E5C0001D003230AE07B6820225A677B6820229A
:100E6C009A677B6870220021995400231800BD46B4
:100E7C0004B080BDFFFFFF0180B584B000AFF86007
:100E8C00B9603B60FB1D1A705DE0BB6901335AD041
:100E9C0000F074FF02003B68D31ABA699A4202D37D
:100EAC00BB69002B1BD1FB681B681A68FB681B68AD
:100EBC002F490A401A60FB681B689A68FB681B681C
:100ECC0001218A439A60FB6820225A67FB68202222
:100EDC009A67FB68702200219954032343E0FB6856
:100EEC001B681B68042213402DD0FB681B68DA6951
:100EFC0080231B011A4080231B019A4223D1FB68DB
:100F0C001B68802212011A62FB681B681A68FB6856
:100F1C001B6817490A401A60FB681B689A68FB68D3
:100F2C001B6801218A439A60FB6820225A67FB6880
:100F3C0020229A67FB682022DA67FB687022002166
:100F4C00995403230FE0FB681B68DB69BA681340F4
:100F5C00BA68D31A5A425341DBB21A00FB1D1B78F4
:100F6C009A4292D000231800BD4604B080BDC04602
:100F7C005FFEFFFF80B582B000AF78607B681B68B6
:100F8C001A687B681B68C0218A431A607B68202220
:100F9C005A67C046BD4602B080BD000080B582B025
:100FAC0000AF78607B681B681A687B681B680A490D
:100FBC000A401A607B681B689A687B681B68012171
:100FCC008A439A607B6820229A677B6800221A66A3
:100FDC00C046BD4602B080BDDFFEFFFF80B584B0C9
:100FEC0000AF78607B685B6AFB607B689B69202B39
:100FFC0014D0FB68522200219952FB681B689A6836
:10100C00FB681B6880218A439A60FB681B681A681E
:10101C00FB681B6840210A431A6003E0FB68180058
:10102C00FFF726FAC046BD4604B080BD80B584B03B
:10103C0000AF78607B685B6AFB60FB681800FFF7A9
:10104C0025FAC046BD4604B080BD80B586B000AF61
:10105C0078607B685B6A7B617B695B6F3B617B69FA
:10106C009B6FFB607B691B689B6880221340802B05
:10107C000AD13B69212B07D17B695222002199525D
:10108C007B691800FFF776FF7B691B689B68402221
:10109C001340402B0AD1FB68222B07D17B695A22C3
:1010AC00002199527B691800FFF778FF7B69DB6F91
:1010BC0010221A437B69DA677B691800FFF7ACFBD7
:1010CC00C046BD4606B080BD80B588B000AF786024
:1010DC007B68002B02D1012300F076FB7B681B6838
:1010EC000122134000D18EE0C54B5B680C221340EB
:1010FC00042B0ED0C24B5B680C221340082B17D16B
:10110C00BF4B5A68C0235B021A4080235B029A4291
:10111C000ED1BB4B1A6880239B02134000D171E0A7
:10112C007B685B68002B00D06CE0012300F04CFB6B
:10113C007B685B68012B07D1B14B1A68B04B8021DF
:10114C0049020A431A602FE07B685B68002B0CD1C4
:10115C00AB4B1A68AA4BAB490A401A60A84B1A68E9
:10116C00A74BA9490A401A601EE07B685B68052BF7
:10117C000ED1A34B1A68A24B8021C9020A431A60F4
:10118C009F4B1A689E4B802149020A431A600BE060
:10119C009B4B1A689A4B9B490A401A60984B1A68E9
:1011AC00974B99490A401A607B685B68002B14D0F6
:1011BC0000F0E4FD0300BB6108E000F0DFFD02007D
:1011CC00BB69D31A642B01D90323FDE28C4B1A683B
:1011DC0080239B021340F0D015E000F0CFFD0300FC
:1011EC00BB6108E000F0CAFD0200BB69D31A642B96
:1011FC0001D90323E8E2824B1A6880239B02134037
:10120C00F0D100E0C0467B681B680222134000D17D
:10121C006CE07B4B5B680C2213400ED0784B5B6808
:10122C000C221340082B1FD1754B5A68C0235B024C
:10123C001A4080231B029A4216D1714B1B68022262
:10124C00134005D07B68DB68012B01D00123BBE286
:10125C006B4B1B68F822934319007B681B69DA00FF
:10126C00674B0A431A6041E07B68DB68002B24D093
:10127C00634B1A68624B01210A431A6000F07EFD31
:10128C000300BB6108E000F079FD0200BB69D31AD2
:10129C00022B01D9032397E2594B1B6802221340FE
:1012AC00F1D0574B1B68F822934319007B681B69DC
:1012BC00DA00534B0A431A6018E0514B1A68504B32
:1012CC0001218A431A6000F059FD0300BB6108E05C
:1012DC0000F054FD0200BB69D31A022B01D9032381
:1012EC0072E2474B1B6802221340F1D17B681B68EA
:1012FC000822134036D07B68DB69002B19D0404B99
:10130C005A6A3F4B01210A435A6200F037FD030031
:10131C00BB6108E000F032FD0200BB69D31A022B5E
:10132C0001D9032350E2364B5B6A02221340F1D001
:10133C0018E0334B5A6A324B01218A435A6200F04F
:10134C001DFD0300BB6108E000F018FD0200BB6945
:10135C00D31A022B01D9032336E2294B5B6A0222F2
:10136C001340F1D17B681B680422134000D1B5E017
:10137C001F203B1800221A70214BDA6980235B0571
:10138C00134010D11E4BDA691D4B802149050A43CD
:10139C00DA611B4BDA6980235B051340FB60FB6849
:1013AC003B1801221A70194B1A6880235B001340FA
:1013BC001AD1164B1A68154B802149000A431A6042
:1013CC0000F0DCFC0300BB6108E000F0D7FC02007D
:1013DC00BB69D31A642B01D90323F5E10B4B1A68B3
:1013EC0080235B001340F0D07B689B68012B0FD1EE
:1013FC00034B1A6A024B01210A431A6236E0C046BB
:10140C0000100240FFFFFEFFFFFFFBFF00700040DB
:10141C007B689B68002B0CD1CA4B1A6AC94B012103
:10142C008A431A62C74B1A6AC64B04218A431A6252
:10143C001CE07B689B68052B0CD1C24B1A6AC14B14
:10144C0004210A431A62BF4B1A6ABE4B01210A439C
:10145C001A620BE0BB4B1A6ABA4B01218A431A621F
:10146C00B84B1A6AB74B04218A431A627B689B6893
:10147C00002B14D000F082FC0300BB6109E000F0EB
:10148C007DFC0200BB69D31AAF4A934201D90323F6
:10149C009AE1AC4B1B6A02221340F0D013E000F02F
:1014AC006DFC0300BB6109E000F068FC0200BB6945
:1014BC00D31AA54A934201D9032385E1A14B1B6A98
:1014CC0002221340F0D11F23FB181B78012B05D1EE
:1014DC009C4BDA699B4B9D490A40DA617B681B681F
:1014EC001022134063D07B685B69012B2AD1954B8A
:1014FC005A6B944B04210A435A63924B5A6B914B8F
:10150C0001210A435A6300F039FC0300BB6108E077
:10151C0000F034FC0200BB69D31A022B01D903235F
:10152C0052E1884B5B6B02221340F1D0854B5B6B15
:10153C00F822934319007B689B69DA00814B0A43BC
:10154C005A6334E07B685B69053311D17D4B5A6B70
:10155C007C4B04218A435A637A4B5B6BF82293438E
:10156C0019007B689B69DA00764B0A435A631EE0CC
:10157C00744B5A6B734B04210A435A63714B5A6B6D
:10158C00704B01218A435A6300F0F8FB0300BB61E6
:10159C0008E000F0F3FB0200BB69D31A022B01D95F
:1015AC00032311E1674B5B6B02221340F1D17B6883
:1015BC001B68202213405CD0624B5B680C221340EA
:1015CC000C2B0ED05F4B5B680C221340082B14D1F4
:1015DC005C4B5A68C0235B021A40C0235B029A42E0
:1015EC000BD1584B5A6B80235B02134040D07B6865
:1015FC001B6A012B3CD00123E6E07B681B6A002BA5
:10160C001BD0504B5A6B4F4B802149020A435A63F3
:10161C0000F0B4FB0300BB6108E000F0AFFB02007C
:10162C00BB69D31A022B01D90323CDE0454B5A6B6E
:10163C0080235B021340F0D01BE0424B5A6B414BB2
:10164C0043490A405A6300F099FB0300BB6108E070
:10165C0000F094FB0200BB69D31A022B01D90323BF
:10166C00B2E0384B5A6B80235B021340F0D100E0A0
:10167C00C0467B685B6A002B00D1A4E0314B5B68F1
:10168C000C221340082B00D178E07B685B6A022B9C
:10169C004CD12C4B1A682B4B2E490A401A6000F087
:1016AC006DFB0300BB6108E000F068FB0200BB6946
:1016BC00D31A022B01D9032386E0224B1A6880230C
:1016CC009B041340F0D11F4BDB6A0F22934319008C
:1016DC007B681A6B1B4B0A43DA621A4B5B681E4A17
:1016EC00134019007B68DA6A7B689B6A1A43154BB6
:1016FC000A435A60134B1A68124B802149040A435F
:10170C001A6000F03BFB0300BB6108E000F036FB05
:10171C000200BB69D31A022B01D9032354E0094BF5
:10172C001A6880239B041340F0D04CE0054B1A68D8
:10173C00044B08490A401A6000F020FB0300BB610F
:10174C0015E0C0460010024088130000FFFFFFEFB9
:10175C00FFFFFEFFFFFFFFFEFF7FC2FF00F00EFB4F
:10176C000200BB69D31A022B01D903232CE0184BBE
:10177C001A6880239B041340F0D124E07B685B6AD9
:10178C00012B01D101231FE0114B5B687B61104BD6
:10179C00DB6A3B617A69C0235B021A407B689B6AF7
:1017AC009A420ED13B690F221A407B681B6B9A42FE
:1017BC0007D17A69F0239B031A407B68DB6A9A4253
:1017CC0001D0012300E000231800BD4608B080BD05
:1017DC000010024080B584B000AF786039607B683F
:1017EC00002B01D10123BFE0614B1B680122134088
:1017FC003A689A4211D95E4B1B6801229343190037
:10180C005B4B3A680A431A60594B1B680122134020
:10181C003A689A4201D00123A6E07B681B68022239
:10182C00134015D07B681B680422134006D0514B23
:10183C005A68504BE021C9000A435A604D4B5B6813
:10184C00F022934319007B689A684A4B0A435A600A
:10185C007B681B68012213404CD07B685B68012BB2
:10186C0007D1444B1A6880239B02134020D10123DB
:10187C007AE07B685B68022B07D13E4B1A688023A9
:10188C009B04134014D101236EE07B685B68032B2F
:10189C0007D1384B5A6B80235B02134008D10123CC
:1018AC0062E0344B1B680222134001D101235BE040
:1018BC00304B5B680322934319007B685A682D4BAD
:1018CC000A435A6000F05AFA0300FB6009E000F08A
:1018DC0055FA0200FB68D31A274A934201D9032315
:1018EC0042E0244B5B680C221A407B685B689B00CF
:1018FC009A42ECD11E4B1B68012213403A689A4263
:10190C0011D21B4B1B68012293431900184B3A68E8
:10191C000A431A60164B1B68012213403A689A421C
:10192C0001D0012320E07B681B680422134009D0FE
:10193C00104B5B68114A134019007B68DA680D4B39
:10194C000A435A6000F020F801000A4B5B681B093F
:10195C000F2213400A4AD35C0A00DA40094B1A6082
:10196C00002000F0C5F900231800BD4604B080BD6E
:10197C00002002400010024088130000FFF8FFFF17
:10198C00602700080800002090B58FB000AF14232A
:10199C00FB18384A13CA13C312681A603B1D364A27
:1019AC0013CA13C312681A600023FB620023BB62C4
:1019BC0000237B6300237B6200233B632F4B5B681C
:1019CC00FB62FB6A0C2213400C2B47D049D8042B2A
:1019DC0002D0082B03D044E0294B3B6344E0FB6A64
:1019EC009B0C0F2213401422BA18D35C7B62234B3E
:1019FC00DB6A0F2213403A1DD35CBB62FA6AC02328
:101A0C005B021A4080235B029A4209D1B96A1C48D6
:101A1C00FEF772FB03001A007B6A53437B631AE0E8
:101A2C00FA6AC0235B021A40C0235B029A4209D1B6
:101A3C00B96A1448FEF760FB03001A007B6A534333
:101A4C007B6308E0B96A0E48FEF756FB03001A00E8
:101A5C007B6A53437B637B6B3B6305E0094B3B63C6
:101A6C0002E0074B3B63C0463B6B1800BD460FB012
:101A7C0090BDC046402700085027000800100240C7
:101A8C0000127A00006CDC0280B500AF024B1B68C0
:101A9C001800BD4680BDC0460800002080B500AFD0
:101AAC00FFF7F2FF0100064B5B681B0A072213408D
:101ABC00044AD35CD9400B001800BD4680BDC0461B
:101ACC00001002407027000880B586B000AF786027
:101ADC0000233B610023FB607B681A6880235B0258
:101AEC00134000D18EE017203B1800221A706E4B69
:101AFC00DA6980235B05134010D16B4BDA696A4BB2
:101B0C00802149050A43DA61674BDA6980235B055A
:101B1C001340BB60BB683B1801221A70634B1A68F8
:101B2C0080235B0013401AD1604B1A685F4B8021F5
:101B3C0049000A431A6000F021F903003B6108E0F8
:101B4C0000F01CF902003B69D31A642B01D9032362
:101B5C00A6E0564B1A6880235B001340F0D0524B22
:101B6C001A6AC0239B001340FB60FB68002B34D027
:101B7C007B685A68C0239B001340FA689A422CD0A9
:101B8C00494B1B6A4A4A1340FB60474B1A6A464B47
:101B9C00802149020A431A62434B1A6A424B454957
:101BAC000A401A62404BFA681A62FB680122134021
:101BBC0013D000F0E3F803003B6109E000F0DEF81D
:101BCC0002003B69D31A3C4A934201D9032367E0D4
:101BDC00354B1B6A02221340F0D0334B1B6A344A3C
:101BEC00134019007B685A682F4B0A431A6217235B
:101BFC00FB181B78012B05D12B4BDA692A4B2F498B
:101C0C000A40DA617B681B680122134009D0264B1D
:101C1C001B6B0322934319007B689A68224B0A437F
:101C2C001A637B681B680222134009D01E4B1B6B86
:101C3C00234A134019007B68DA681B4B0A431A636A
:101C4C007B681A688023DB02134009D0164B1B6B90
:101C5C001C4A134019007B681A69134B0A431A6318
:101C6C007B681B682022134009D00F4B1B6B102282
:101C7C00934319007B685A690B4B0A431A637B68C0
:101C8C001A688023DB00134009D0074B1B6B4022E2
:101C9C00934319007B689A69034B0A431A63002328
:101CAC001800BD4606B080BD001002400070004018
:101CBC00FFFCFFFFFFFFFEFF88130000FFFFFFEF9D
:101CCC00FFFFFCFFFFFFF3FF80B500AF074B1A6867
:101CDC00064B10210A431A60002000F009F8FEF7A9
:101CEC0009FC00231800BD4680BDC0460020024000
:101CFC0090B583B000AF7860144B1C68144B1B7804
:101D0C001900FA239800FEF7F7F9030019002000D8
:101D1C00FEF7F2F90300180000F095FC031E01D049
:101D2C0001230FE07B68032B0BD8796801235B42FE
:101D3C000022180000F062FC064B7A681A6000233F
:101D4C0000E001231800BD4603B090BD0800002040
:101D5C00040000200000002080B500AF054B1B786C
:101D6C001A00054B1B68D218034B1A60C046BD46BF
:101D7C0080BDC04604000020EC00002080B500AF00
:101D8C00024B1B681800BD4680BDC046EC0000200D
:101D9C0080B584B000AF7860FFF7F0FF0300BB6044
:101DAC007B68FB60FB68013305D00A4B1B781A007B
:101DBC00FB689B18FB60C046FFF7E0FF0200BB68A6
:101DCC00D31AFA689A42F7D8C046C046BD4604B04A
:101DDC0080BDC0460400002080B586B000AF78609E
:101DEC00396000237B6155E13B681B6801217A69EE
:101DFC0091400A001340FB60FB68002B00D146E1C8
:101E0C003B685B68022B03D03B685B68122B23D1C9
:101E1C007B69DA087B6808329200D3583B617B6996
:101E2C00072213409B000F229A401300DA433B69B0
:101E3C0013403B613B681A697B6907210B409B008F
:101E4C009A4013003A6913433B617B69DA087B685B
:101E5C00083292003969D1507B681B683B617B6901
:101E6C005B0003229A401300DA433B6913403B6149
:101E7C003B685B6803221A407B695B009A40130045
:101E8C003A6913433B617B683A691A603B685B684B
:101E9C00012B0BD03B685B68022B07D03B685B685F
:101EAC00112B03D03B685B68122B30D17B689B688D
:101EBC003B617B695B0003229A401300DA433B6968
:101ECC0013403B613B68DA687B695B009A40130006
:101EDC003A6913433B617B683A699A607B685B683B
:101EEC003B6101227B699A401300DA433B69134042
:101EFC003B613B685B681B0901221A407B699A4075
:101F0C0013003A6913433B617B683A695A607B68FA
:101F1C00DB683B617B695B0003229A401300DA4368
:101F2C003B6913403B613B689A687B695B009A4054
:101F3C0013003A6913433B617B683A69DA603B688A
:101F4C005A6880235B05134000D1A0E0574B9A6977
:101F5C00564B01210A439A61544B9B690122134051
:101F6C00BB60BB68524A7B699B0802339B009B5841
:101F7C003B617B69032213409B000F229A401300A4
:101F8C00DA433B6913403B617A689023DB059A4244
:101F9C0019D07B68474A934213D07B68464A9342D8
:101FAC000DD07B68454A934207D07B68444A9342E4
:101FBC0001D1042308E0052306E0032304E00223F7
:101FCC0002E0012300E000237A6903210A40920019
:101FDC0093403A6913433B6135497B699B08023353
:101FEC009B003A695A50374B1B683B61FB68DA43DC
:101FFC003B6913403B613B685A6880235B0213408A
:10200C0003D03A69FB6813433B612E4B3A691A6063
:10201C002C4B5B683B61FB68DA433B6913403B61CB
:10202C003B685A6880239B02134003D03A69FB68D3
:10203C0013433B61234B3A695A60224B9B683B61CB
:10204C00FB68DA433B6913403B613B685A68802369
:10205C005B03134003D03A69FB6813433B61194B94
:10206C003A699A60174BDB683B61FB68DA433B6962
:10207C0013403B613B685A6880239B03134003D099
:10208C003A69FB6813433B610E4B3A69DA607B6932
:10209C0001337B613B681A687B69DA40131E00D000
:1020AC00A2E6C046C046BD4606B080BD0010024048
:1020BC00000001400004004800080048000C0048E3
:1020CC00001000480004014080B582B000AF786079
:1020DC0008001100BB1C021C1A807B1C0A1C1A7005
:1020EC007B1C1B78002B04D0BB1C1A887B689A6164
:1020FC0003E0BB1C1A887B689A62C046BD4602B0DE
:10210C0080BD80B582B000AF78600A00BB1C1A801D
:10211C007B685B69BA1C1288134005D0BB1C1B88FA
:10212C001A047B689A6103E0BB1C1A887B689A616D
:10213C00C046BD4602B080BD80B584B000AF7860AB
:10214C000023FB607B68002B01D1012336E07B6808
:10215C002122022199547B681B681B68FB60FB6879
:10216C00184A1340FB607B685A687B689B681A436B
:10217C007B68DB681A437B681B691A437B685B6965
:10218C001A437B689B691A437B68DB691343FA68C3
:10219C001343FB607B681B68FA681A607B68180045
:1021AC0000F046F97B6800229A637B6821220121AA
:1021BC0099547B6820220021995400231800BD46B5
:1021CC0004B080BD0FC0FFFF80B586B000AFF860D3
:1021DC00B9607A603B601723FB1800221A70FB6809
:1021EC0020229B5C012B01D102234FE0FB682022B3
:1021FC0001219954FB6821229B5CDBB2012B3AD163
:10220C00FB68212202219954FB6800229A63FB6827
:10221C001B681A68FB681B6801218A431A603B68BB
:10222C007A68B968F86800F0D7F8FB68DB6A002BAD
:10223C0008D0FB681B681A68FB681B680E210A43F0
:10224C001A600FE0FB681B681A68FB681B680A21A0
:10225C000A431A60FB681B681A68FB681B68042138
:10226C008A431A60FB681B681A68FB681B680121AB
:10227C000A431A6007E0FB682022002199541723B7
:10228C00FB1802221A701723FB181B781800BD4686
:10229C0006B080BD80B584B000AF78607B68DB6B26
:1022AC001B68FB607B681B681B68BB607B681B6CD6
:1022BC0004229A401300FA68134024D0BB6804220D
:1022CC00134020D07B681B681B682022134007D169
:1022DC007B681B681A687B681B6804218A431A6038
:1022EC007B681A6C7B68DB6B042191400A005A6096
:1022FC007B68DB6A002B00D16AE07B68DB6A7A685A
:10230C001000984764E07B681B6C02229A40130013
:10231C00FA6813402BD0BB680222134027D07B688D
:10232C001B681B68202213400BD17B681B681A6842
:10233C007B681B680A218A431A607B682122012171
:10234C0099547B681A6C7B68DB6B022191400A0004
:10235C005A607B682022002199547B689B6A002B71
:10236C0036D07B689B6A7A681000984730E07B68AF
:10237C001B6C08229A401300FA68134028D0BB68E3
:10238C000822134024D07B681B681A687B681B6882
:10239C000E218A431A607B681A6C7B68DB6B012107
:1023AC0091400A005A607B6801229A637B68212263
:1023BC00012199547B682022002199547B681B6B66
:1023CC00002B05D07B681B6B7A6810009847FFE7E1
:1023DC00C046BD4604B080BD80B584B000AFF86087
:1023EC00B9607A603B60FB681A6CFB68DB6B01219F
:1023FC0091400A005A60FB681B683A685A60FB6897
:10240C005B68102B08D1FB681B687A689A60FB68C4
:10241C001B68BA68DA6007E0FB681B68BA689A60E8
:10242C00FB681B687A68DA60C046BD4604B080BDA4
:10243C0080B582B000AF78607B681B681A00144BC3
:10244C009A4210D87B681B68124A94466344142144
:10245C001800FDF751FE03009A007B681A647B6834
:10246C000D4ADA630FE07B681B680C4A94466344A0
:10247C0014211800FDF740FE03009A007B681A64D3
:10248C007B68074ADA63C046BD4602B080BDC046D1
:10249C0007040240F8FFFDBF00000240F8FBFDBF3F
:1024AC000004024080B582B000AF0200FB1D1A7020
:1024BC00FB1D1B787F2B09D8FB1D1B781A001F23D3
:1024CC001A40044B012191400A001A60C046BD46D7
:1024DC0002B080BD00E100E090B583B000AF020017
:1024EC003960FB1D1A70FB1D1B787F2B28D82F4AD7
:1024FC00FB1D1B785BB29B08C0339B009B58FA1DDD
:10250C001278110003220A40D200FF2191400A00E8
:10251C00D2431A4011003B689B01FF221A40FB1D5D
:10252C001B78180003230340DB009A401F48FB1D57
:10253C001B785BB29B080A43C0339B001A5031E0F6
:10254C001B4AFB1D1B7819000F230B40083B9B08F3
:10255C0006339B00D31804331B68FA1D1278110044
:10256C0003220A40D200FF2191400A00D2431A40B4
:10257C0011003B689B01FF221A40FB1D1B781800C1
:10258C0003230340DB009A400948FB1D1B781C0009
:10259C000F232340083B9B080A4306339B00C318B8
:1025AC0004331A60C046BD4603B090BD00E100E0A4
:1025BC0000ED00E080B582B000AF78607B685A1EF9
:1025CC0080235B049A4201D3012310E00A4B7A6802
:1025DC00013A5A6001235B4203211800FFF77CFF8C
:1025EC00054B00229A60044B07221A600023180046
:1025FC00BD4602B080BDC04610E000E080B584B09E
:10260C0000AFB9607A600F217B18021C1A70BA688F
:10261C007B181B785BB211001800FFF75DFFC046FA
:10262C00BD4604B080BD80B582B000AF0200FB1D7A
:10263C001A70FB1D1B785BB21800FFF733FFC04606
:10264C00BD4602B080BD80B582B000AF78607B68BB
:10265C001800FFF7AFFF03001800BD4602B080BDA5
:10266C0080B500AFC046BD4680BD00000D48854614
:10267C000D480E490E4A002302E0D458C4500433CE
:10268C00C4188C42F9D30B4A0B4C002301E01360A5
:10269C000432A242FBD3FFF7E3FF00F011F8FDF781
:1026AC00B7FDFEE700800020000000200C00002099
:1026BC00802700080C000020F0000020FEE700003E
:1026CC0070B500260C4D0D4C641BA410A64209D10C
:1026DC00002600F021F80A4D0A4C641BA410A642F7
:1026EC0005D170BDB300EB5898470136EEE7B30047
:1026FC00EB5898470136F2E778270008782700084E
:10270C00782700087C27000803008218934200D128
:10271C00704719700133F9E7F8B5C046F8BC08BC2E
:10272C009E467047F8B5C046F8BC08BC9E4670473C
:10273C00660D0A0002030405060708090A0B0C0DB6
:10274C000E0F10100102030405060708090A0B0CF2
:10275C000D0E0F1000000000000000000102030429
:0C276C0006070809000000000102030439
:04277800E500000870
:04277C00BD00000894
:0C278000040000000100000000127A00BC
:040000050800267950
:00000001FF
