:020000040800F2
:1000000000800020CD1900083304000835040008E2
:1000100000000000000000000000000000000000E0
:10002000000000000000000000000000370400088D
:100030000000000000000000390400083B04000834
:100040001D1A00081D1A00081D1A00081D1A0008B4
:100050001D1A00081D1A00081D1A00081D1A0008A4
:100060001D1A00081D1A00081D1A00084504000882
:100070001D1A00081D1A00081D1A00081D1A000884
:100080001D1A00081D1A00081D1A00081D1A000874
:100090001D1A00081D1A00081D1A00081D1A000864
:1000A0001D1A00081D1A00081D1A00081D1A000854
:0C00B0001D1A00081D1A00081D1A000887
:1000BC0010B5064C2378002B07D1054B002B02D032
:1000CC00044800E000BF0123237010BD0C00002089
:1000DC0000000000781A0008044B10B5002B03D068
:1000EC000349044800E000BF10BDC04600000000FA
:1000FC0010000020781A0008002243088B4274D3A9
:10010C0003098B425FD3030A8B4244D3030B8B420C
:10011C0028D3030C8B420DD3FF22090212BA030C15
:10012C008B4202D31212090265D0030B8B4219D3F6
:10013C0000E0090AC30B8B4201D3CB03C01A524116
:10014C00830B8B4201D38B03C01A5241430B8B425E
:10015C0001D34B03C01A5241030B8B4201D30B0347
:10016C00C01A5241C30A8B4201D3CB02C01A52416E
:10017C00830A8B4201D38B02C01A5241430A8B4231
:10018C0001D34B02C01A5241030A8B4201D30B021A
:10019C00C01A5241CDD2C3098B4201D3CB01C01A34
:1001AC00524183098B4201D38B01C01A524143093E
:1001BC008B4201D34B01C01A524103098B4201D32C
:1001CC000B01C01A5241C3088B4201D3CB00C01A99
:1001DC00524183088B4201D38B00C01A5241430811
:1001EC008B4201D34B00C01A5241411A00D2014636
:1001FC00524110467047FFE701B5002000F006F8A9
:10020C0002BDC0460029F7D076E770477047C0465C
:10021C0030B589B01422002103A801F01FFC1D4B3E
:10022C00596980200003014359615A6902400092C8
:10023C00009A59698020C003014359615A690240F0
:10024C000192019A5A69802189020A435A615B69B9
:10025C000B400293029B9025ED05002220212800E3
:10026C0001F00CFA80239B0103930B4B04930024A5
:10027C00059403A9094801F023F9202303931F3B9C
:10028C0004930594069403A9280001F019F909B008
:10029C0030BDC0460010024000002110000800488C
:1002AC0000B583B0154B5969012211435961596945
:1002BC000A400092009A59690222114359615B6904
:1002CC001A400192019B0E480E4B03608023DB0108
:1002DC004360402383604033C36000230361436168
:1002EC008361C36101F00CFA002200210B2001F0A4
:1002FC000DFB0B2001F03AFB03B000BD00100240D7
:10030C00280000200804024010B50948094B03607E
:10031C00E1235B02436000238360C36003610C2212
:10032C0042618361C3610362436200F0E3FB10BD71
:10033C00B00000200044004010B598B030220021DD
:10034C000CA801F08BFB1022002107A801F086FB02
:10035C001C220021684601F081FB20230B931F3BDC
:10036C00139300240BA800F0FBFB07230793043B1B
:10037C00089309940A94012107A800F0DDFE0223DA
:10038C0000930394684600F08FFF18B010BD000076
:10039C00F0B5C64600B586B001F05EF8FFF7CCFFAD
:1003AC00FFF736FFFFF77CFFFFF7AEFF03AC1A4BEE
:1003BC002200190021C921C2097811700022627231
:1003CC006D460C33290041CB41C12A81012676426E
:1003DC00124F33000A322100380000F0D5FA104BCE
:1003EC0098460A2322002900404601F0B1F9320058
:1003FC000021404601F0D3F9FA20800001F04EF8BC
:10040C0033000A222100380000F0BEFAFA208000E6
:10041C0001F044F8FAE7C046901A0008B00000203A
:10042C002800002070477047FEE77047704710B5F2
:10043C0001F022F810BD000010B5024801F011FACD
:10044C0010BDC0466C00002082B00A4B9969012295
:10045C001143996199690A400092009ADA698021E6
:10046C0049050A43DA61DB690B400193019B02B039
:10047C007047C0460010024030B589B00400142209
:10048C00002103A801F0EAFA244B22689A4201D019
:10049C0009B030BD224BD969802292021143D96137
:1004AC00D9691140019101995969114359615B69ED
:1004BC001A400292029B0C2303930A3B04930025DF
:1004CC0005950695013B0793902003A9C00500F004
:1004DC00F7FF1448144B036010234360856070339E
:1004EC00C36005614561603B836180239B01C361EF
:1004FC0001F006F900280ED10C4AA823D1580C485B
:10050C000140D150D058902109020143D150054BE4
:10051C00A3665C62BCE7FFF785FFEDE70044004093
:10052C00001002406C000020440002400000024019
:10053C00FF0FFFFF70B50400836802691343426923
:10054C001343C269134301680A689D480240134370
:10055C000B60226853689B490B40E1680B43536066
:10056C00226AA3691A4321688B6897480340134396
:10057C008B602368954A93421AD0954A934243D094
:10058C00944A934258D0944A934200D186E0934ABD
:10059C00934200D184E0924A934200D182E0914A86
:1005AC00934200D180E0904A93425DD010250BE03D
:1005BC008E4B1A6B03231340022B57D020D8002BE1
:1005CC0056D0012B56D1042580231B02E2699A4296
:1005DC006CD0042D00D1E3E000D9B9E0002D00D19E
:1005EC00D3E0022D00D0B0E063685808804B9C46E5
:1005FC0060446168FFF780FD0004000C0025B8E042
:10060C00032B39D10225DFE7784B1B6BC0229202FA
:10061C00134080229202934230D007D8002B2FD067
:10062C008022520293422DD10425CDE7C0229202A2
:10063C00934229D10225C7E76C4B1B6BC0221203D6
:10064C00134080221203934220D007D8002B1FD0D6
:10065C008022D20293421DD10425B5E7C022120399
:10066C00934219D10225AFE70025ADE70825ABE78A
:10067C000025A9E71025A7E71025A5E70825A3E77E
:10068C000025A1E710259FE710259DE708259BE78E
:10069C00002599E7102597E7102595E7002593E7A6
:1006AC00002591E700258FE700258DE7042D3FD02D
:1006BC0012D8002D30D0022D0BD1636858084D4B49
:1006CC009C4660446168FFF717FD0004000C002590
:1006DC0013E00125002010E0082D0CD163685808A8
:1006EC0080235B029C4660446168FFF705FD0004B3
:1006FC00000C002501E0012500203F4A0300103BBF
:10070C00934259D80F2302009A434008083B1840E3
:10071C0010432368D86033E000F0B6FD40006368F6
:10072C005B08C0186168FFF7E7FC0004000CE4E705
:10073C0000F0B8FC400063685B08C0186168FFF704
:10074C00DBFC0004000C0025D7E70125002010E09D
:10075C00082D0CD16368580880231B029C4660440A
:10076C006168FFF7C9FC0004000C002501E00125BD
:10077C000020214A0300103B93421FD82368D86005
:10078C00002323666366280070BD00F07DFD63685E
:10079C005B0818186168FFF7AFFC0004000CE8E771
:1007AC0000F080FC63685B0818186168FFF7A4FC14
:1007BC000004000C0025DCE70125E1E70125DFE75B
:1007CC00F369FFEFFFCFFFFFFFF4FFFF003801409D
:1007DC000044004000480040004C004000500040E5
:1007EC000014014000180140001C014000100240A0
:1007FC0000127A000024F400EFFF0000436ADB07CC
:10080C0006D5026853682C490B40816A0B43536030
:10081C00436A9B0706D50268536828490B40C16A96
:10082C000B435360436A5B0706D50268536824493F
:10083C000B40016B0B435360436A1B0706D50268E0
:10084C00536820490B40416B0B435360436ADB06F2
:10085C0006D5026893681C490B40816B0B4393606F
:10086C00436A9B0606D50268936818490B40C16B16
:10087C000B439360436A5B060BD5026853681449BB
:10088C000B40016C0B43536080235B03026C9A4258
:10089C000AD0436A1B0606D5026853680D490B4003
:1008AC00816C0B4353607047026853680A490B40D4
:1008BC00416C0B435360ECE7FFFFFDFFFFFFFEFFB6
:1008CC00FFFFFBFFFF7FFFFFFFEFFFFFFFDFFFFFE0
:1008DC00FFFFEFFFFFFFF7FFFFFF9FFFF8B5CE46CF
:1008EC00474680B506000D0017009946089B9846B0
:1008FC003368DC692C40641B63425C41BC423CD1D4
:10090C0043460133F4D000F0C3FD4B46C01A4045BA
:10091C0020D84346002B1DD033681A685207E7D500
:10092C00DA691205E4D5802212011A623268136862
:10093C0014490B40136032689368A331FF318B4329
:10094C00936020237367B367F36750330022F2542C
:10095C00032013E0326813680A490B4013603268B5
:10096C009368A331FF318B43936020237367B36784
:10097C0050330022F254032000E000200CBC9046BF
:10098C009946F8BD5FFEFFFFF0B5C64600B582B0D4
:10099C0004000D0090461E00436F202B65D10029EA
:1009AC0068D0002A68D080235B0182689A421AD0F2
:1009BC007023E35C012B61D070230122E2540023ED
:1009CC00E3672133636700F063FD07005023424661
:1009DC00E2520233E25280235B01A2689A4209D0B0
:1009EC00002398461DE00369002BE1D1CB07DFD52E
:1009FC0001203BE02369002B02D00023984610E035
:100A0C00A84600250DE043461B88DB05DB0D22685C
:100A1C00138502239C46E0445223E25A013A92B2D7
:100A2C00E2525223E35A9BB2002B0FD000963B00AC
:100A3C00002280212000FFF751FF002820D1002D3B
:100A4C00E1D02B78226813850135E5E700963B0051
:100A5C00002240212000FFF741FF002812D1202363
:100A6C00636750330022E25400E0022002B004BC61
:100A7C009046F0BD0120F9E70120F7E70220F5E7E9
:100A8C000320F3E70320F1E730B583B00400002323
:100A9C00C36700F0FDFC050023681B681B070CD422
:100AAC0023681B685B0715D420236367A367503347
:100ABC000022E254002003B030BD80210C4B009387
:100ACC000300002289032000FFF708FF0028E7D06D
:100ADC000320F0E78021064B00932B000022C90372
:100AEC002000FFF7FBFE0028DED00320E3E7C04622
:100AFC00FFFFFF0110B5041E2ED0436F002B21D039
:100B0C00242363672268136801218B431360200040
:100B1C00FFF710FD012814D0636A002B18D122684E
:100B2C0053680E490B405360226893682A218B430B
:100B3C0093602268136829390B4313602000FFF778
:100B4C00A3FF10BD70330022C254FFF795FCD7E70A
:100B5C002000FFF753FEE2E70120F2E7FFB7FFFFAB
:100B6C0070B582B0041E00D17FE20368DB072BD581
:100B7C00B34B5A680C231340042B1DD0B04B5A684E
:100B8C000C231340082B0ED06368012B41D0002B93
:100B9C0056D1AB4B1A68AB490A401A601A68AA497D
:100BAC000A401A603BE0A64B5B68C022520213401D
:100BBC00802252029342E7D1A14B1B689B0303D5C1
:100BCC006368002B00D153E223689B0777D59C4BBD
:100BDC005B680C221A4262D0994B5A680C23134062
:100BEC00082B53D0E368002B00D18AE0944A136899
:100BFC0001210B43136000F04BFC0500904B1B686C
:100C0C009B0775D400F044FC401B0228F6D9032046
:100C1C002CE28B4A116880235B020B4313606368E0
:100C2C00002B25D000F034FC0500854B1B689B0382
:100C3C00CAD400F02DFC401B6428F6D9032015E221
:100C4C00052B09D07E4B1A687E490A401A601A6837
:100C5C007D490A401A60E2E7794B19688022D2027A
:100C6C000A431A601968802252020A431A60D6E7B6
:100C7C0000F00EFC0500724B1B689B03A4D500F022
:100C8C0007FC401B6428F6D90320EFE16C4B5B6832
:100C9C00C02252021340802212029342A2D1684B0E
:100CAC001B689B0703D5E368012B00D0E2E1644984
:100CBC000B68F82293432269D20013430B6023681C
:100CCC001B0744D5E369002B2ED05D4A536A0121E2
:100CDC000B43536200F0DCFB0500594B5B6A9B072E
:100CEC0035D400F0D5FB401B0228F6D90320BDE11A
:100CFC0053490B68F82293432269D20013430B60CB
:100D0C00DDE74F4A136801218B43136000F0C0FBF1
:100D1C0005004B4B1B689B07D1D500F0B9FB401B62
:100D2C000228F6D90320A1E1454A536A01218B43DD
:100D3C00536200F0ADFB0500414B5B6A9B0706D587
:100D4C0000F0A6FB401B0228F6D903208EE1236895
:100D5C005B0700D480E03A4BDB69DB001DD4384ADA
:100D6C00D169802040050143D161D36903400193CF
:100D7C00019B0125354B1B68DB0510D5A368012BA6
:100D8C0021D0002B36D12E4B1A6A01218A431A62CC
:100D9C001A6A03318A431A621AE00025EAE72B4AE1
:100DAC00116880235B000B43136000F071FB06009D
:100DBC00264B1B68DB05E1D400F06AFB801B642822
:100DCC00F6D9032052E11E4A136A01210B43136228
:100DDC00A368002B24D000F05BFB0600184B1B6AA9
:100DEC009B0737D400F054FB801B194B9842F5D964
:100DFC0003203BE1052B09D0114B1A6A01218A43D0
:100E0C001A621A6A03318A431A62E1E70C4B1A6AB6
:100E1C0004210A431A621A6A03390A431A62D7E791
:100E2C0000F036FB0600064B1B6A9B0712D500F040
:100E3C002FFB801B064B9842F5D9032016E1C046C8
:100E4C0000100240FFFFFEFFFFFFFBFF00700040A1
:100E5C0088130000012D39D02368DB0610D5636997
:100E6C00012B39D0053357D1894A536B04218B435D
:100E7C005363536BF4318B43A169C9000B43536328
:100E8C0023689B066ED5824B5A680C2313400C2B9F
:100E9C0060D07F4B5A680C231340082B53D0236A25
:100EAC00002B7ED07A4A516B80235B020B43536339
:100EBC0000F0EEFA0500764B5B6BDB0352D400F0CE
:100ECC00E7FA401B0228F6D90320CFE0704AD36919
:100EDC0070490B40D361BFE76D4B5A6B04210A4339
:100EEC005A635A6B03390A435A6300F0D1FA05006E
:100EFC00674B5B6B9B0706D400F0CAFA401B0228B9
:100F0C00F6D90320B2E062494B6BF8229343A269F5
:100F1C00D20013434B63B3E75D4B5A6B04210A4376
:100F2C005A635A6B03398A435A6300F0B1FA0500CD
:100F3C00574B5B6B9B07A3D500F0AAFA401B02280A
:100F4C00F6D9032092E0524B5B68C0225202134048
:100F5C009342A4D14E4B5B6BDB0303D5236A012B6D
:100F6C0000D089E0636A002B00D187E0484A5168C1
:100F7C000C220A40082A60D0022B25D0444A136860
:100F8C0045490B40136000F083FA0400404B1B688A
:100F9C009B0150D500F07CFA001B0228F6D90320E7
:100FAC0064E03B4A536B3D490B40536300F070FACD
:100FBC000500374B5B6BDB03D4D500F069FA401BA3
:100FCC000228F6D9032051E0314A136832490B400C
:100FDC00136000F05DFA05002D4B1B689B0106D5D4
:100FEC0000F056FA401B0228F6D903203EE0284BAD
:100FFC00DA6A0F218A43216B0A43DA625A6828495C
:10100C000A40E16AA06A01430A435A6019688022C7
:10101C0052040A431A6000F03BFA04001C4B1B6894
:10102C009B0106D400F034FA001B0228F6D90320E9
:10103C001CE000201AE0002018E0012B20D0144BFB
:10104C005A68D96AC0235B021340A06A834219D143
:10105C000F230B40216B8B4216D1F0239B031A40BC
:10106C00E36A9A4212D1002000E0012002B070BD68
:10107C000120FBE70120F9E70120F7E70020F5E765
:10108C000120F3E70120F1E70120EFE70120EDE774
:10109C0000100240FFFFFFEFFFFFFFFEFFFFFEFF10
:1010AC00FF7FC2FF10B588B004AA1E4B13CB13C22E
:1010BC001B6813606A461C4B13CB13C21B6813606E
:1010CC001A4B5A680C231340082B04D00C2B26D136
:1010DC00174808B010BD910C0F23194004A8445CAC
:1010EC001249C96A0B406946C95CC0235B021A40AD
:1010FC0080235B029A4208D0C0235B029A4209D03B
:10110C000C48FEF7F9FF6043E3E70A48FEF7F4FFEB
:10111C006043DEE70648FEF7EFFF6043D9E705487A
:10112C00D7E7C046A81A0008BC1A000800100240F5
:10113C00006CDC0200127A0070B504000D0000286F
:10114C0000D186E0474B1A68012313408B420AD228
:10115C0044490B68012293432B430B600B681A40E4
:10116C00AA4200D077E023689A070ED55B0705D515
:10117C003D4A5168E023DB000B4353603A4A536805
:10118C00F0218B43A1680B4353602368DB0735D5F3
:10119C006368012B09D0022B24D0032B28D0324AB0
:1011AC001268920705D4012052E02F4A126892036C
:1011BC0053D52D494A680320824313434B6000F0FA
:1011CC0067F90600284B5B680C221A4063689B0089
:1011DC009A4213D000F05CF9801B244B9842F1D951
:1011EC00032035E0204A12689201E2D401202FE05E
:1011FC001D4A526BD203DCD4012029E0194B1A682A
:10120C0001231340AB4209D916490B6801229343C1
:10121C002B430B600B681A40AA4220D123685B0752
:10122C0006D5114A536812490B40E1680B435360D1
:10123C00FFF738FF0C4B5A6812090F2313400D4A65
:10124C00D35CD8400C4B1860002000F0DDF8002077
:10125C0070BD0120FCE70120FAE70120F8E701202E
:10126C00F6E7C04600200240001002408813000040
:10127C00FFF8FFFFD01A000808000020014B186887
:10128C007047C0460800002010B5FFF7F7FF044B6D
:10129C005A68120A07231340024AD35CD84010BD87
:1012AC0000100240E01A000870B582B00400036818
:1012BC00DB0337D54C4BDB69DB0067D44A4AD16979
:1012CC00802040050143D161D36903400193019B08
:1012DC000125464B1B68DB055AD5434B1A6AC023C4
:1012EC009B00110019401A4213D0626813408B42C4
:1012FC000FD03D4B186A3E4A02401E6A80214902BB
:10130C0031431962196A3B4E314019621A62C307A4
:10131C0052D4354A136A36490B4061680B43136249
:10132C00012D58D02368DB0706D52F4A136B0321F8
:10133C008B43A1680B43136323689B0706D52A4A8A
:10134C00136B2D490B40E1680B43136323685B035C
:10135C0006D5254A136B29490B4021690B431363AE
:10136C0023689B0606D5204A136B10218B436169B9
:10137C000B43136323685B0532D51B4A136B402167
:10138C008B43A1690B43136300202AE00025A0E7DF
:10139C00164A116880235B000B43136000F078F849
:1013AC000600124B1B68DB0597D400F071F8801B0C
:1013BC006428F6D9032014E000F06AF806000A4B02
:1013CC001B6A9B07A5D400F063F8801B0C4B98425A
:1013DC00F5D9032005E0D3690A490B40D361A1E795
:1013EC00002002B070BDC0460010024000700040EA
:1013FC00FFFCFFFFFFFFFEFFFFFFFCFFFFFFF3FF04
:10140C0088130000FFFFFFEF10B504000F4B197895
:10141C00FA208000FEF770FE01000D4B1868FEF7F5
:10142C006BFE00F0AFFA00280DD1032C01D901207E
:10143C000AE0013000222100404200F067FA054B1F
:10144C001C60002000E0012010BDC0460000002000
:10145C00080000200400002010B5064A1368102173
:10146C000B4313600020FFF7CFFFFEF7EDFF0020CA
:10147C0010BDC04600200240034A1168034B1B7884
:10148C005B1813607047C04630010020000000203C
:10149C00014B18687047C0463001002070B504003D
:1014AC00FFF7F6FF0500631C02D0044B1B78E41811
:1014BC00FFF7EEFF401BA042FAD370BD00000020E6
:1014CC00F0B5D6464F464646C0B582B0002338E04C
:1014DC00042600E00026A64034003C430232920071
:1014EC005F4E94515F4A14684A46D24326004D46DB
:1014FC00AE434D68ED0302D54D462C432600594CA6
:10150C0026606468260016404D68AD0302D54D4632
:10151C002C432600534C6660A468260016404D6888
:10152C00ED0202D54D462C4326004E4CA660E468D5
:10153C0022404D68AD0201D54A462243494CE26037
:10154C0001330C682200DA4000D182E001229A407B
:10155C0025001540A9461442F2D04C68022C01D04B
:10156C00122C0ED1DC080834A400275807261E4084
:10157C00B6000F25B540AF430D69B5402E003E4374
:10158C0026500468A4465E000324A2462700B740F8
:10159C00B846FF4365464446A543AC464C685546A1
:1015AC0025402C00B44065462C4304604C68651EF5
:1015BC00012D03D9112C01D0122C13D184683C407D
:1015CC00A446CC68B44065462C438460446894437C
:1015DC0022004C682409A446012465462C409C40FA
:1015EC0014434460C26817408A68B2403A43C260F0
:1015FC004A68D200A4D51C4CA66901221643A661E8
:10160C00A46922400192019A9A08941CA400144ED9
:10161C00A75903261E40B4000F26A640B7439026B8
:10162C00F605B04200D155E7104EB0420BD0104E2B
:10163C00B0420AD00F4EB04209D00F4EB04200D18A
:10164C0046E7052647E7012645E7022643E703263A
:10165C0041E702B01CBC90469946A246F0BDC0467C
:10166C00000001400004014000100240000400484A
:10167C0000080048000C004800100048002A01D067
:10168C00816170478162FCE770B5C56B0124066C03
:10169C00B4406C60046863604368102B04D003682A
:1016AC0099600368DA6070BD03689A600368D9605A
:1016BC00F9E7000010B5040000680C4B98420AD8FA
:1016CC000B4B9C4660441421FEF716FD80002064F1
:1016DC00084BE36310BD084B9C4660441421FEF795
:1016EC000BFD80002064054BE363F3E70704024025
:1016FC00F8FFFDBF00000240F8FBFDBF00040240F4
:10170C0070B5041E20D021250223435501680B68B7
:10171C000E4A1A40436880680343E068034320691B
:10172C00034360690343A0690343E0690343134324
:10173C000B602000FFF7BEFF0023A363012262555C
:10174C001F32A354002070BD0120FCE70FC0FFFF27
:10175C0070B504002020205C01281ED0202001251B
:10176C0025540130205C012804D020230022E254AF
:10177C00022070BD2030013525540020A06326685E
:10178C003068013DA84330602000FFF77DFF2268E0
:10179C0013682B4313600020EBE70220E9E7F0B558
:1017AC0083B006000C0017002123C35C022B07D06A
:1017BC00042383631C330022C254012003B0F0BD08
:1017CC0003681B689B0624D4002927D10225036CCF
:1017DC009D40FFF75DFE0190F16B0B681D422DD112
:1017EC000868326C0823934003421BD17B1CF3D056
:1017FC00002F05D0FFF74CFE019BC01AB842EBD965
:10180C002023B36321220121B1540022F254012080
:10181C00D4E780235B0083630120CFE70425036CAE
:10182C009D40D6E70123180090404860B363212205
:10183C00B3541F330022F2540120BFE7002C0BD10C
:10184C000223326C93404B6021230122F25420235B
:10185C000022F2540020B1E70423326C93404B6019
:10186C00F5E770B5C36B1A6804682568016C04232E
:10187C008B401A4212D06B0710D523689B0603D4F9
:10188C002368042293432360C26B0423016C8B40B6
:10189C005360C36A002B00D0984770BD02238B4065
:1018AC001A4218D0AB0716D523689B0606D42368BA
:1018BC000A22934323602123093AC254C26B0223A8
:1018CC00016C8B40536020230022C254836A002B8E
:1018DC00E3D09847E1E708238B401A42DDD02B0771
:1018EC00DBD523680E2293432360C26B01231900BE
:1018FC00046CA14051608363212283541F33002266
:10190C00C254036B002BC8D09847C6E770B50028AB
:10191C0011DB8308134EC0339B009D5903242040D8
:10192C00C000FF2214008440A54389010A40824074
:10193C002A439A5170BD0F230340083B9B08063382
:10194C009B00094A944663445C6803221040C00023
:10195C00FC3215008540AC4389010A408240224389
:10196C005A60E7E700E100E000ED00E0002805DB4D
:10197C001F2318401E3B8340014A13607047C0462A
:10198C0000E100E0013880235B0498420FD2094A41
:10199C0050600948036A1B021B0AC02109060B434D
:1019AC00036200239360073313600020704701200B
:1019BC00FCE7C04610E000E000ED00E070470000DE
:1019CC000D4885460D480E490E4A002302E0D458B6
:1019DC00C4500433C4188C42F9D30B4A0B4C00236B
:1019EC0001E013600432A242FBD3FFF7E7FF00F0E3
:1019FC0011F8FEF7CDFCFEE700800020000000206F
:101A0C000C000020F01A00080C000020340100200B
:101A1C00FEE7000070B500260C4D0D4C641BA410A5
:101A2C00A64209D1002600F021F80A4D0A4C641B8D
:101A3C00A410A64205D170BDB300EB5898470136EF
:101A4C00EEE7B300EB5898470136F2E7E81A0008C6
:101A5C00E81A0008E81A0008EC1A000803008218BB
:101A6C00934200D1704719700133F9E7F8B5C046BD
:101A7C00F8BC08BC9E467047F8B5C046F8BC08BC1C
:041A8C009E467047BB
:101A90004265666F72650D0A00000000416674655C
:101AA000720D0A0000000000020304050607080981
:101AB0000A0B0C0D0E0F10100000000001020304B1
:101AC00005060708090A0B0C0D0E0F100000000098
:101AD00000000000000000000102030406070809DE
:081AE0000000000001020304F4
:041AE800E50000080D
:041AEC00BD00000831
:0C1AF000010000000400000000127A0059
:04000005080019CD09
:00000001FF
