:020000040800F2
:1000000000800020951900086D0400086F040008A6
:1000100000000000000000000000000000000000E0
:100020000000000000000000000000007104000853
:1000300000000000000000007304000875040008C0
:10004000E5190008E5190008E5190008E519000898
:10005000E5190008E5190008E51900087D04000805
:10006000E5190008E5190008E5190008E519000878
:10007000E5190008E5190008E5190008E519000868
:10008000E5190008E5190008E5190008E519000858
:10009000E5190008E5190008E5190008E519000848
:1000A000E5190008E5190008E5190008E519000838
:0C00B00091040008E5190008E51900089B
:1000BC0010B5064C2378002B07D1054B002B02D032
:1000CC00044800E000BF0123237010BD0C00002089
:1000DC0000000000401A0008044B10B5002B03D0A0
:1000EC000349044800E000BF10BDC04600000000FA
:1000FC0010000020401A0008002243088B4274D3E1
:10010C0003098B425FD3030A8B4244D3030B8B420C
:10011C0028D3030C8B420DD3FF22090212BA030C15
:10012C008B4202D31212090265D0030B8B4219D3F6
:10013C0000E0090AC30B8B4201D3CB03C01A524116
:10014C00830B8B4201D38B03C01A5241430B8B425E
:10015C0001D34B03C01A5241030B8B4201D30B0347
:10016C00C01A5241C30A8B4201D3CB02C01A52416E
:10017C00830A8B4201D38B02C01A5241430A8B4231
:10018C0001D34B02C01A5241030A8B4201D30B021A
:10019C00C01A5241CDD2C3098B4201D3CB01C01A34
:1001AC00524183098B4201D38B01C01A524143093E
:1001BC008B4201D34B01C01A524103098B4201D32C
:1001CC000B01C01A5241C3088B4201D3CB00C01A99
:1001DC00524183088B4201D38B00C01A5241430811
:1001EC008B4201D34B00C01A5241411A00D2014636
:1001FC00524110467047FFE701B5002000F006F8A9
:10020C0002BDC0460029F7D076E770477047C0465C
:10021C0010B588B01422002103A801F003FC184B80
:10022C00596980200003014359615A6902400092C8
:10023C00009A59698020C003014359615A690240F0
:10024C000192019A5A69802189020A435A615B69B9
:10025C000B400293029B9024E405002220212000F5
:10026C0001F004FB202303931F3B0493002305930D
:10027C00069303A9200001F029FA08B010BDC0466E
:10028C000010024010B586B00E4A51698020C002A1
:10029C0001435161536903400093009B0823019370
:1002AC0000230393013302930493074C01A920000C
:1002BC0001F00CFA01220821200001F0D7FA06B057
:1002CC0010BDC046001002400004004800B587B0C5
:1002DC000F4A5169802080020143516153690340E8
:1002EC000093009B8023DB00019301230393094BB4
:1002FC000293902001A9C00501F0E8F90022012128
:10030C00072001F0E7FA072001F014FB07B000BD4D
:10031C00001002400000211010B50D480D4B036079
:10032C00E1235B02436000238360C36003610C2202
:10033C0042618361C3610362436200F0DFFC01220E
:10034C0001211C2001F0C6FA1C2001F0F3FA10BDAB
:10035C00A80000200044004030B599B020220021B4
:10036C000CA801F05FFB1022002107A801F05AFB3A
:10037C001C220021684601F055FB02240B9401233A
:10038C000E9310220F921494802212021592A02226
:10039C009203169217930BA800F0E8FC072307931F
:1003AC000894002509950A95012107A800F0CAFFB9
:1003BC0000940395684601F07DF819B030BD00003B
:1003CC0010B50821014801F057FA10BD000400488F
:1003DC0010B5054B834200D010BD90202021C005E4
:1003EC0001F04AFAF8E7C046A800002010B508480A
:1003FC00084B0360E1235B02436000238360C3600E
:10040C0003610C2242618361C36100F077FC10BD73
:10041C00280000200038014010B501F023F9FFF747
:10042C009BFFFFF7F5FEFFF777FFFFF72BFFFFF7BB
:10043C004DFFFFF7DBFF0821064801F01DFA0A23E8
:10044C0005220549054800F0A3FBFA20400001F005
:10045C002BF9F0E700040048581A00082800002087
:10046C007047FEE77047704710B501F00BF910BDEF
:10047C0010B58020C000024B5861FFF7A1FF10BDE2
:10048C000004014010B5024800F096F810BDC046BB
:10049C00A800002082B00A4B99690122114399618E
:1004AC0099690A400092009ADA69802149050A4349
:1004BC00DA61DB690B400193019B02B07047C046C7
:1004CC000010024010B58AB004001422002105A8C7
:1004DC0001F0A8FA244B22689A4205D02268234BDB
:1004EC009A4221D00AB010BD214BD96980229202C8
:1004FC001143D961D969114001910199596911438D
:10050C0059615B691A400292029B0C2305930A3BCA
:10051C00069300230793089301330993902005A9B0
:10052C00C00501F0D3F8D9E7114B99698020C001BF
:10053C00014399619A6902400392039A5A69802196
:10054C00C9020A435A615B690B400493049BC023A4
:10055C000593BE3B0693002307930893099305A9C3
:10056C00044801F0B3F8BDE70044004000380140F6
:10057C0000100240000400480268136806490B4052
:10058C001360026893682331FF318B4393602023FF
:10059C008367002303667047DFFEFFFF10B5026818
:1005AC00136840218B431360202343670023436669
:1005BC00FFF70EFF10BD704770B504000268D369D9
:1005CC001068956856491E000E400B4203D19906DF
:1005DC0001D581061AD4002E08D001210E002E4020
:1005EC00294219D12031FF31084215D1D90202D547
:1005FC00690200D582E01A0602D5020600D584E015
:10060C005B0602D5430600D586E070BD236E002B39
:10061C00FBD020009847F8E7D90706D5C10504D5CB
:10062C0001211162E26F0A43E2679A0708D5002E96
:10063C0006D0226802211162E26F02310A43E2679E
:10064C005A0708D5002E06D0226804211162E26FE9
:10065C0002390A43E2671A0709D5820601D4002E33
:10066C0005D0226808211162E26F0A43E2671A057D
:10067C0009D5420107D52268802109011162E26F78
:10068C0020210A43E267E26F002ABED09B0606D502
:10069C00830604D5236E002B01D020009847E26F0F
:1006AC0023689B685B0602D42823134220D02000C9
:1006BC00FFF762FF23689A68520615D59A684021A5
:1006CC008A439A60E36E002B0AD0164A5A63E06E96
:1006DC0001F0DAF8002898D0E06E436B984794E765
:1006EC002000FFF768FF90E72000FFF764FF8CE71E
:1006FC002000FFF760FF0023E36786E780235B039E
:10070C001362200000F030FB7FE7636E002B00D1FA
:10071C007BE72000984778E72000FFF73FFF74E75E
:10072C000F0800003507000810B5406A00235A2254
:10073C008352083A8352FFF73EFF10BD70B5040098
:10074C0083680269134342691343C2691343016806
:10075C000A689D48024013430B60226853689B490A
:10076C000B40E1680B435360226AA3691A4321686A
:10077C008B689748034013438B602368954A9342D8
:10078C001AD0954A934243D0944A934258D0944AF3
:10079C00934200D186E0934A934200D184E0924A7E
:1007AC00934200D182E0914A934200D180E0904A7A
:1007BC0093425DD010250BE08E4B1A6B0323134034
:1007CC00022B57D020D8002B56D0012B56D1042504
:1007DC0080231B02E2699A426CD0042D00D1E3E025
:1007EC0000D9B9E0002D00D1D3E0022D00D0B0E04B
:1007FC0063685808804B9C4660446168FFF77CFC3A
:10080C000004000C0025B8E0032B39D10225DFE7EA
:10081C00784B1B6BC02292021340802292029342AF
:10082C0030D007D8002B2FD08022520293422DD1EA
:10083C000425CDE7C0229202934229D10225C7E7B5
:10084C006C4B1B6BC0221203134080221203934289
:10085C0020D007D8002B1FD08022D20293421DD16A
:10086C000425B5E7C0221203934219D10225AFE744
:10087C000025ADE70825ABE70025A9E71025A7E77C
:10088C001025A5E70825A3E70025A1E710259FE77C
:10089C0010259DE708259BE7002599E7102597E78C
:1008AC00102595E7002593E7002591E700258FE7B4
:1008BC0000258DE7042D3FD012D8002D30D0022D0D
:1008CC000BD1636858084D4B9C4660446168FFF738
:1008DC0013FC0004000C002513E00125002010E09F
:1008EC00082D0CD16368580880235B029C46604439
:1008FC006168FFF701FC0004000C002501E00125F4
:10090C0000203F4A0300103B934259D80F230200AA
:10091C009A434008083B184010432368D86033E0E2
:10092C0000F0B8FD400063685B08C0186168FFF711
:10093C00E3FB0004000CE4E700F0BAFC4000636841
:10094C005B08C0186168FFF7D7FB0004000C00259A
:10095C00D7E70125002010E0082D0CD1636858085A
:10096C0080231B029C4660446168FFF7C5FB0004B2
:10097C00000C002501E001250020214A0300103B5A
:10098C0093421FD82368D86000232366636628002F
:10099C0070BD00F07FFD63685B0818186168FFF795
:1009AC00ABFB0004000CE8E700F082FC63685B081A
:1009BC0018186168FFF7A0FB0004000C0025DCE7A9
:1009CC000125E1E70125DFE7F369FFEFFFCFFFFF2B
:1009DC00FFF4FFFF00380140004400400048004095
:1009EC00004C004000500040001401400018014031
:1009FC00001C01400010024000127A000024F40098
:100A0C00EFFF0000436ADB0706D5026853682C49E8
:100A1C000B40816A0B435360436A9B0706D50268FF
:100A2C00536828490B40C16A0B435360436A5B0708
:100A3C0006D50268536824490B40016B0B43536085
:100A4C00436A1B0706D50268536820490B40416B6B
:100A5C000B435360436ADB0606D5026893681C4956
:100A6C000B40816B0B439360436A9B0606D502686F
:100A7C00936818490B40C16B0B439360436A5B0648
:100A8C000BD50268536814490B40016C0B4353603F
:100A9C0080235B03026C9A420AD0436A1B0606D57C
:100AAC00026853680D490B40816C0B4353607047CF
:100ABC00026853680A490B40416C0B435360ECE7E6
:100ACC00FFFFFDFFFFFFFEFFFFFFFBFFFF7FFFFFB1
:100ADC00FFEFFFFFFFDFFFFFFFFFEFFFFFFFF7FF62
:100AEC00FFFF9FFFF8B5CE46474680B506000D00C8
:100AFC0017009946089B98463368DC692C40641BA8
:100B0C0063425C41BC423CD143460133F4D000F01B
:100B1C00C5FD4B46C01A404520D84346002B1DD07E
:100B2C0033681A685207E7D5DA691205E4D58022D2
:100B3C0012011A623268136814490B401360326850
:100B4C009368A331FF318B43936020237367B367A2
:100B5C00F36750330022F254032013E03268136819
:100B6C000A490B40136032689368A331FF318B4301
:100B7C00936020237367B36750330022F254032031
:100B8C0000E000200CBC90469946F8BD5FFEFFFFCC
:100B9C00F0B5C64600B582B004000D0090461E00AC
:100BAC00436F202B65D1002968D0002A68D08023A0
:100BBC005B0182689A421AD07023E35C012B61D0EE
:100BCC0070230122E2540023E3672133636700F0B2
:100BDC0065FD070050234246E2520233E252802365
:100BEC005B01A2689A4209D0002398461DE0036974
:100BFC00002BE1D1CB07DFD501203BE02369002B93
:100C0C0002D00023984610E0A84600250DE043468C
:100C1C001B88DB05DB0D2268138502239C46E04410
:100C2C005223E25A013A92B2E2525223E35A9BB255
:100C3C00002B0FD000963B00002280212000FFF7F4
:100C4C0051FF002820D1002DE1D02B78226813858C
:100C5C000135E5E700963B00002240212000FFF71C
:100C6C0041FF002812D12023636750330022E25445
:100C7C0000E0022002B004BC9046F0BD0120F9E770
:100C8C000120F7E70220F5E70320F3E70320F1E763
:100C9C0030B583B004000023C36700F0FFFC0500EF
:100CAC0023681B681B070CD423681B685B0715D4CF
:100CBC0020236367A36750330022E254002003B063
:100CCC0030BD80210C4B00930300002289032000CF
:100CDC00FFF708FF0028E7D00320F0E78021064B40
:100CEC0000932B000022C9032000FFF7FBFE002815
:100CFC00DED00320E3E7C046FFFFFF0110B5041E62
:100D0C002ED0436F002B21D02423636722681368F5
:100D1C0001218B4313602000FFF710FD012814D034
:100D2C00636A002B18D1226853680E490B4053603C
:100D3C00226893682A218B439360226813682939AF
:100D4C000B4313602000FFF7A3FF10BD703300228C
:100D5C00C254FFF7B7FBD7E72000FFF753FEE2E7DB
:100D6C000120F2E7FFB7FFFF7047000070B582B0BB
:100D7C00041E00D17FE20368DB072BD5B34B5A6806
:100D8C000C231340042B1DD0B04B5A680C2313407A
:100D9C00082B0ED06368012B41D0002B56D1AB4BE6
:100DAC001A68AB490A401A601A68AA490A401A60C4
:100DBC003BE0A64B5B68C0225202134080225202D9
:100DCC009342E7D1A14B1B689B0303D56368002BAF
:100DDC0000D153E223689B0777D59C4B5B680C22B0
:100DEC001A4262D0994B5A680C231340082B53D0EB
:100DFC00E368002B00D18AE0944A136801210B436D
:100E0C00136000F04BFC0500904B1B689B0775D4DE
:100E1C0000F044FC401B0228F6D903202CE28B4A3C
:100E2C00116880235B020B4313606368002B25D091
:100E3C0000F034FC0500854B1B689B03CAD400F002
:100E4C002DFC401B6428F6D9032015E2052B09D094
:100E5C007E4B1A687E490A401A601A687D490A401E
:100E6C001A60E2E7794B19688022D2020A431A60B1
:100E7C001968802252020A431A60D6E700F00EFC71
:100E8C000500724B1B689B03A4D500F007FC401BAC
:100E9C006428F6D90320EFE16C4B5B68C022520248
:100EAC001340802212029342A2D1684B1B689B070D
:100EBC0003D5E368012B00D0E2E164490B68F8220A
:100ECC0093432269D20013430B6023681B0744D55C
:100EDC00E369002B2ED05D4A536A01210B43536208
:100EEC0000F0DCFB0500594B5B6A9B0735D400F026
:100EFC00D5FB401B0228F6D90320BDE153490B68F2
:100F0C00F82293432269D20013430B60DDE74F4A6A
:100F1C00136801218B43136000F0C0FB05004B4BA1
:100F2C001B689B07D1D500F0B9FB401B0228F6D9F2
:100F3C000320A1E1454A536A01218B43536200F01F
:100F4C00ADFB0500414B5B6A9B0706D500F0A6FB89
:100F5C00401B0228F6D903208EE123685B0700D4DE
:100F6C0080E03A4BDB69DB001DD4384AD169802024
:100F7C0040050143D161D36903400193019B0125D5
:100F8C00354B1B68DB0510D5A368012B21D0002B3A
:100F9C0036D12E4B1A6A01218A431A621A6A03311E
:100FAC008A431A621AE00025EAE72B4A116880236B
:100FBC005B000B43136000F071FB0600264B1B68B3
:100FCC00DB05E1D400F06AFB801B6428F6D9032012
:100FDC0052E11E4A136A01210B431362A368002BD2
:100FEC0024D000F05BFB0600184B1B6A9B0737D420
:100FFC0000F054FB801B194B9842F5D903203BE1C0
:10100C00052B09D0114B1A6A01218A431A621A6AFC
:10101C0003318A431A62E1E70C4B1A6A04210A4332
:10102C001A621A6A03390A431A62D7E700F036FBD0
:10103C000600064B1B6A9B0712D500F02FFB801B8A
:10104C00064B9842F5D9032016E1C0460010024029
:10105C00FFFFFEFFFFFFFBFF007000408813000046
:10106C00012D39D02368DB0610D56369012B39D0EB
:10107C00053357D1894A536B04218B435363536B0C
:10108C00F4318B43A169C9000B43536323689B065E
:10109C006ED5824B5A680C2313400C2B60D07F4BBF
:1010AC005A680C231340082B53D0236A002B7ED094
:1010BC007A4A516B80235B020B43536300F0EEFAC8
:1010CC000500764B5B6BDB0352D400F0E7FA401B58
:1010DC000228F6D90320CFE0704AD36970490B403F
:1010EC00D361BFE76D4B5A6B04210A435A635A6BA9
:1010FC0003390A435A6300F0D1FA0500674B5B6B66
:10110C009B0706D400F0CAFA401B0228F6D903202C
:10111C00B2E062494B6BF8229343A269D2001343AD
:10112C004B63B3E75D4B5A6B04210A435A635A6B0A
:10113C0003398A435A6300F0B1FA0500574B5B6BD5
:10114C009B07A3D500F0AAFA401B0228F6D903206E
:10115C0092E0524B5B68C022520213409342A4D1DE
:10116C004E4B5B6BDB0303D5236A012B00D089E06C
:10117C00636A002B00D187E0484A51680C220A4070
:10118C00082A60D0022B25D0444A136845490B40ED
:10119C00136000F083FA0400404B1B689B0150D590
:1011AC0000F07CFA001B0228F6D9032064E03B4ACD
:1011BC00536B3D490B40536300F070FA0500374BFD
:1011CC005B6BDB03D4D500F069FA401B0228F6D91F
:1011DC00032051E0314A136832490B40136000F090
:1011EC005DFA05002D4B1B689B0106D500F056FAE5
:1011FC00401B0228F6D903203EE0284BDA6A0F2167
:10120C008A43216B0A43DA625A6828490A40E16A28
:10121C00A06A01430A435A601968802252040A43A7
:10122C001A6000F03BFA04001C4B1B689B0106D4AF
:10123C0000F034FA001B0228F6D903201CE0002031
:10124C001AE0002018E0012B20D0144B5A68D96A00
:10125C00C0235B021340A06A834219D10F230B40B9
:10126C00216B8B4216D1F0239B031A40E36A9A42FE
:10127C0012D1002000E0012002B070BD0120FBE77C
:10128C000120F9E70120F7E70020F5E70120F3E75B
:10129C000120F1E70120EFE70120EDE7001002400B
:1012AC00FFFFFFEFFFFFFFFEFFFFFEFFFF7FC2FF11
:1012BC0010B588B004AA1E4B13CB13C21B68136065
:1012CC006A461C4B13CB13C21B6813601A4B5A682B
:1012DC000C231340082B04D00C2B26D1174808B034
:1012EC0010BD910C0F23194004A8445C1249C96A23
:1012FC000B406946C95CC0235B021A4080235B0229
:10130C009A4208D0C0235B029A4209D00C48FEF7DF
:10131C00F3FE6043E3E70A48FEF7EEFE6043DEE7C8
:10132C000648FEF7E9FE6043D9E70548D7E7C04613
:10133C00601A0008741A000800100240006CDC02ED
:10134C0000127A0070B504000D00002800D186E070
:10135C00474B1A68012313408B420AD244490B684D
:10136C00012293432B430B600B681A40AA4200D016
:10137C0077E023689A070ED55B0705D53D4A51687F
:10138C00E023DB000B4353603A4A5368F0218B4354
:10139C00A1680B4353602368DB0735D56368012BC9
:1013AC0009D0022B24D0032B28D0324A1268920782
:1013BC0005D4012052E02F4A1268920353D52D49CF
:1013CC004A680320824313434B6000F067F9060020
:1013DC00284B5B680C221A4063689B009A4213D01E
:1013EC0000F05CF9801B244B9842F1D9032035E0C6
:1013FC00204A12689201E2D401202FE01D4A526B60
:10140C00D203DCD4012029E0194B1A6801231340C4
:10141C00AB4209D916490B68012293432B430B604D
:10142C000B681A40AA4220D123685B0706D5114AE3
:10143C00536812490B40E1680B435360FFF738FFC8
:10144C000C4B5A6812090F2313400D4AD35CD84039
:10145C000C4B1860002000F0DDF8002070BD01205E
:10146C00FCE70120FAE70120F8E70120F6E7C04687
:10147C00002002400010024088130000FFF8FFFF1C
:10148C00881A000808000020014B18687047C046F5
:10149C000800002010B5FFF7F7FF044B5A68120A3A
:1014AC0007231340024AD35CD84010BD0010024001
:1014BC00981A000870B582B004000368DB0337D5B6
:1014CC004C4BDB69DB0067D44A4AD169802040056C
:1014DC000143D161D36903400193019B0125464B24
:1014EC001B68DB055AD5434B1A6AC0239B001100BD
:1014FC0019401A4213D0626813408B420FD03D4BF7
:10150C00186A3E4A02401E6A802149023143196220
:10151C00196A3B4E314019621A62C30752D4354ADC
:10152C00136A36490B4061680B431362012D58D086
:10153C002368DB0706D52F4A136B03218B43A16865
:10154C000B43136323689B0706D52A4A136B2D495B
:10155C000B40E1680B43136323685B0306D5254AF4
:10156C00136B29490B4021690B43136323689B06BA
:10157C0006D5204A136B10218B4361690B4313630F
:10158C0023685B0532D51B4A136B40218B43A16941
:10159C000B43136300202AE00025A0E7164A1168CC
:1015AC0080235B000B43136000F078F80600124BAD
:1015BC001B68DB0597D400F071F8801B6428F6D902
:1015CC00032014E000F06AF806000A4B1B6A9B0724
:1015DC00A5D400F063F8801B0C4B9842F5D903207E
:1015EC0005E0D3690A490B40D361A1E7002002B0A2
:1015FC0070BDC0460010024000700040FFFCFFFFB1
:10160C00FFFFFEFFFFFFFCFFFFFFF3FF881300004F
:10161C00FFFFFFEF10B504000F4B1978FA20800084
:10162C00FEF76AFD01000D4B1868FEF765FD00F032
:10163C008DF900280DD1032C01D901200AE00130CD
:10164C0000222100404200F045F9054B1C600020AF
:10165C0000E0012010BDC046000000200800002062
:10166C000400002010B5064A136810210B431360C8
:10167C000020FFF7CFFFFEF70DFF002010BDC04686
:10168C0000200240034A1168034B1B785B1813605F
:10169C007047C0462801002000000020014B18684C
:1016AC007047C0462801002070B50400FFF7F6FF14
:1016BC000500631C02D0044B1B78E418FFF7EEFF07
:1016CC00401BA042FAD370BD00000020F0B5CE46FE
:1016DC00474680B583B0002333E0042600E00026A3
:1016EC00A64034003C4302329200594E9451594A60
:1016FC001468EA432600AE434F68FF0301D52C4320
:10170C002600544C26606468260016404F68BF03C0
:10171C0001D52C4326004F4C6660A4682600164069
:10172C004F68FF0201D52C4326004A4CA660E468A2
:10173C0022404E68B60201D52A002243454CE26095
:10174C0001330C682200DA407CD001229A4025003B
:10175C0015401442F4D04C68661E012E03D9112C8E
:10176C0001D0122C12D184685F000326BE40B44312
:10177C002600CC68BC4034438460446894434A6877
:10178C001609012232409A4022434260C4685F002D
:10179C000326BE40F2439446B44326008C68BC40FA
:1017AC003443C4604A68022A01D0122A10D1DE08E0
:1017BC000836B2009146145807221A4092000F26A0
:1017CC009640B4430E699640320022434C46225058
:1017DC0004686246144003224E683240BA402243E9
:1017EC0002604A68D200ABD51B4CA6690122164395
:1017FC00A661A46922400192019A9A08941CA40043
:10180C00134EA75903261E40B4000F26A640B7431B
:10181C009026F605B04200D161E7104EB0420BD0D5
:10182C000F4EB0420AD00F4EB04209D00E4EB0420D
:10183C0000D152E7052653E7012651E702264FE770
:10184C0003264DE703B00CBC90469946F0BDC0464C
:10185C000000014000040140001002400004004858
:10186C0000080048000C004800100048002A01D075
:10187C00816170478162FCE7426913000B401B04D5
:10188C00914319438161704710B52123C35C022B2E
:10189C0003D004238363012010BD026813680E215A
:1018AC008B43136001680A6801239A430A60C26B78
:1018BC001900046CA1405160212283541F33002273
:1018CC00C254436B002B02D098470020E4E7002061
:1018DC00E2E7000070B5002811DB8308134EC0331B
:1018EC009B009D5903242040C000FF22140084401B
:1018FC00A54389010A4082402A439A5170BD0F23A7
:10190C000340083B9B0806339B00094A94466344FA
:10191C005C6803221040C000FC3215008540AC43CB
:10192C0089010A40824022435A60E7E700E100E067
:10193C0000ED00E0002805DB1F2318401E3B834010
:10194C00014A13607047C04600E100E00138802373
:10195C005B0498420FD2094A50600948036A1B0283
:10196C001B0AC02109060B43036200239360073353
:10197C001360002070470120FCE7C04610E000E037
:10198C0000ED00E0704700000D4885460D480E49FB
:10199C000E4A002302E0D458C4500433C4188C42BD
:1019AC00F9D30B4A0B4C002301E013600432A24222
:1019BC00FBD3FFF7E7FF00F011F8FEF72DFDFEE774
:1019CC0000800020000000200C000020A81A000855
:1019DC000C0000202C010020FEE7000070B5002652
:1019EC000C4D0D4C641BA410A64209D1002600F02E
:1019FC0021F80A4D0A4C641BA410A64205D170BDF7
:101A0C00B300EB5898470136EEE7B300EB58984714
:101A1C000136F2E7A01A0008A01A0008A01A000864
:101A2C00A41A000803008218934200D17047197061
:101A3C000133F9E7F8B5C046F8BC08BC9E467047C0
:0C1A4C00F8B5C046F8BC08BC9E467047C8
:101A58004444444400000000020304050607080942
:101A68000A0B0C0D0E0F10100000000001020304F9
:101A780005060708090A0B0C0D0E0F1000000000E0
:101A88000000000000000000010203040607080926
:081A980000000000010203043C
:041AA000E500000855
:041AA400BD00000879
:0C1AA800010000000400000000127A00A1
:040000050800199541
:00000001FF
