:020000040800F2
:1000000000800020FD140008690300086B0300084D
:1000100000000000000000000000000000000000E0
:100020000000000000000000000000006D03000858
:1000300000000000000000006F03000871030008CA
:100040004D1500084D1500084D1500084D15000808
:100050004D1500084D1500084D15000879030008DE
:100060004D1500084D1500084D1500084D150008E8
:100070004D1500084D1500084D1500084D150008D8
:100080004D1500084D1500084D1500084D150008C8
:100090004D1500084D1500084D1500084D150008B8
:1000A0004D1500084D1500084D1500084D150008A8
:0C00B0004D1500084D1500084D15000806
:1000BC0010B5064C2378002B07D1054B002B02D032
:1000CC00044800E000BF0123237010BD0C00002089
:1000DC0000000000A8150008044B10B5002B03D03D
:1000EC000349044800E000BF10BDC04600000000FA
:1000FC0010000020A8150008002243088B4274D37E
:10010C0003098B425FD3030A8B4244D3030B8B420C
:10011C0028D3030C8B420DD3FF22090212BA030C15
:10012C008B4202D31212090265D0030B8B4219D3F6
:10013C0000E0090AC30B8B4201D3CB03C01A524116
:10014C00830B8B4201D38B03C01A5241430B8B425E
:10015C0001D34B03C01A5241030B8B4201D30B0347
:10016C00C01A5241C30A8B4201D3CB02C01A52416E
:10017C00830A8B4201D38B02C01A5241430A8B4231
:10018C0001D34B02C01A5241030A8B4201D30B021A
:10019C00C01A5241CDD2C3098B4201D3CB01C01A34
:1001AC00524183098B4201D38B01C01A524143093E
:1001BC008B4201D34B01C01A524103098B4201D32C
:1001CC000B01C01A5241C3088B4201D3CB00C01A99
:1001DC00524183088B4201D38B00C01A5241430811
:1001EC008B4201D34B00C01A5241411A00D2014636
:1001FC00524110467047FFE701B5002000F006F8A9
:10020C0002BDC0460029F7D076E770477047C0465C
:10021C0030B589B01422002103A801F0B7F9214BA5
:10022C00596980200003014359615A6902400092C8
:10023C00009A59698020C003014359615A690240F0
:10024C000192019A5A69802189020A435A615B69B9
:10025C000B400293029B9025ED05002220212800E3
:10026C0001F0D8F880239B0103930F4B04930024D7
:10027C00059403A90D4800F0FDFF202303931F3BB9
:10028C0004930594069403A9280000F0F3FF0022C0
:10029C000021072001F0D2F8072001F0FFF809B087
:1002AC0030BDC0460010024000001110000800488C
:1002BC0010B50948094B0360E1235B02436000233E
:1002CC008360C36003610C2242618361C36103627A
:1002DC00436200F0FBFA10BD2800002000440040EF
:1002EC0030B599B0202200210CA801F04FF9102252
:1002FC00002107A801F04AF91C220021684601F0F0
:10030C0045F902240B9401230E9310220F9214949E
:10031C00802212021592A0229203169217930BA818
:10032C0000F00AFB072307930894002509950A950A
:10033C00012107A800F0ECFD00940395684600F03D
:10034C009FFE19B030BD10B500F072FFFFF7C8FF6B
:10035C00FFF75EFFFFF7ACFFFEE770477047FEE765
:10036C007047704710B500F073FF10BD10B58020BA
:10037C00800101F055F810BD82B00A4B9969012239
:10038C001143996199690A400092009ADA698021B7
:10039C0049050A43DA61DB690B400193019B02B00A
:1003AC007047C0460010024010B588B004001422FB
:1003BC00002103A801F0EAF82268124B9A4201D0FE
:1003CC0008B010BD104BD969802292021143D9613B
:1003DC00D9691140019101995969114359615B69BE
:1003EC001A400292029B0C2303930A3B04930023B2
:1003FC000593069301330793902003A9C00500F0E1
:10040C0039FFDDE7004400400010024070B50400E5
:10041C0083680269134342691343C2691343016839
:10042C000A689D48024013430B60226853689B493D
:10043C000B40E1680B435360226AA3691A4321689D
:10044C008B689748034013438B602368954A93420B
:10045C001AD0954A934243D0944A934258D0944A26
:10046C00934200D186E0934A934200D184E0924AB1
:10047C00934200D182E0914A934200D180E0904AAD
:10048C0093425DD010250BE08E4B1A6B0323134067
:10049C00022B57D020D8002B56D0012B56D1042537
:1004AC0080231B02E2699A426CD0042D00D1E3E058
:1004BC0000D9B9E0002D00D1D3E0022D00D0B0E07E
:1004CC0063685808804B9C4660446168FFF714FED3
:1004DC000004000C0025B8E0032B39D10225DFE71E
:1004EC00784B1B6BC02292021340802292029342E3
:1004FC0030D007D8002B2FD08022520293422DD11E
:10050C000425CDE7C0229202934229D10225C7E7E8
:10051C006C4B1B6BC02212031340802212039342BC
:10052C0020D007D8002B1FD08022D20293421DD19D
:10053C000425B5E7C0221203934219D10225AFE777
:10054C000025ADE70825ABE70025A9E71025A7E7AF
:10055C001025A5E70825A3E70025A1E710259FE7AF
:10056C0010259DE708259BE7002599E7102597E7BF
:10057C00102595E7002593E7002591E700258FE7E7
:10058C0000258DE7042D3FD012D8002D30D0022D40
:10059C000BD1636858084D4B9C4660446168FFF76B
:1005AC00ABFD0004000C002513E00125002010E039
:1005BC00082D0CD16368580880235B029C4660446C
:1005CC006168FFF799FD0004000C002501E001258E
:1005DC0000203F4A0300103B934259D80F230200DE
:1005EC009A434008083B184010432368D86033E016
:1005FC0000F036FD400063685B08C0186168FFF7C7
:10060C007BFD0004000CE4E700F038FC400063685C
:10061C005B08C0186168FFF76FFD0004000C002533
:10062C00D7E70125002010E0082D0CD1636858088D
:10063C0080231B029C4660446168FFF75DFD00044B
:10064C00000C002501E001250020214A0300103B8D
:10065C0093421FD82368D860002323666366280062
:10066C0070BD00F0FDFC63685B0818186168FFF74B
:10067C0043FD0004000CE8E700F000FC63685B0835
:10068C0018186168FFF738FD0004000C0025DCE742
:10069C000125E1E70125DFE7F369FFEFFFCFFFFF5E
:1006AC00FFF4FFFF003801400044004000480040C8
:1006BC00004C004000500040001401400018014064
:1006CC00001C01400010024000127A000024F400CB
:1006DC00EFFF0000436ADB0706D5026853682C491C
:1006EC000B40816A0B435360436A9B0706D5026833
:1006FC00536828490B40C16A0B435360436A5B073C
:10070C0006D50268536824490B40016B0B435360B8
:10071C00436A1B0706D50268536820490B40416B9E
:10072C000B435360436ADB0606D5026893681C4989
:10073C000B40816B0B439360436A9B0606D50268A2
:10074C00936818490B40C16B0B439360436A5B067B
:10075C000BD50268536814490B40016C0B43536072
:10076C0080235B03026C9A420AD0436A1B0606D5AF
:10077C00026853680D490B40816C0B435360704702
:10078C00026853680A490B40416C0B435360ECE719
:10079C00FFFFFDFFFFFFFEFFFFFFFBFFFF7FFFFFE4
:1007AC00FFEFFFFFFFDFFFFFFFFFEFFFFFFFF7FF95
:1007BC00FFFF9FFFF8B5CE46474680B506000D00FB
:1007CC0017009946089B98463368DC692C40641BDB
:1007DC0063425C41BC423CD143460133F4D000F04F
:1007EC0043FD4B46C01A404520D84346002B1DD034
:1007FC0033681A685207E7D5DA691205E4D5802206
:10080C0012011A623268136814490B401360326883
:10081C009368A331FF318B43936020237367B367D5
:10082C00F36750330022F254032013E0326813684C
:10083C000A490B40136032689368A331FF318B4334
:10084C00936020237367B36750330022F254032064
:10085C0000E000200CBC90469946F8BD5FFEFFFFFF
:10086C0030B583B004000023C36700F0FDFC050025
:10087C0023681B681B070CD423681B685B0715D403
:10088C0020236367A36750330022E254002003B097
:10089C0030BD80210C4B0093030000228903200003
:1008AC00FFF788FF0028E7D00320F0E78021064BF4
:1008BC0000932B000022C9032000FFF77BFF0028C8
:1008CC00DED00320E3E7C046FFFFFF0110B5041E96
:1008DC002ED0436F002B21D024236367226813682A
:1008EC0001218B4313602000FFF790FD012814D0E9
:1008FC00636A002B18D1226853680E490B40536071
:10090C00226893682A218B439360226813682939E3
:10091C000B4313602000FFF7A3FF10BD70330022C0
:10092C00C254FFF741FDD7E72000FFF7D3FEE2E703
:10093C000120F2E7FFB7FFFF70B582B0041E00D1B3
:10094C007FE20368DB072BD5B34B5A680C231340AB
:10095C00042B1DD0B04B5A680C231340082B0ED01F
:10096C006368012B41D0002B56D1AB4B1A68AB49B5
:10097C000A401A601A68AA490A401A603BE0A64B62
:10098C005B68C02252021340802252029342E7D18C
:10099C00A14B1B689B0303D56368002B00D153E26A
:1009AC0023689B0777D59C4B5B680C221A4262D05C
:1009BC00994B5A680C231340082B53D0E368002B37
:1009CC0000D18AE0944A136801210B43136000F0B4
:1009DC004BFC0500904B1B689B0775D400F044FC46
:1009EC00401B0228F6D903202CE28B4A1168802385
:1009FC005B020B4313606368002B25D000F034FCC2
:100A0C000500854B1B689B03CAD400F02DFC401BD2
:100A1C006428F6D9032015E2052B09D07E4B1A6801
:100A2C007E490A401A601A687D490A401A60E2E75A
:100A3C00794B19688022D2020A431A601968802205
:100A4C0052020A431A60D6E700F00EFC0500724B06
:100A5C001B689B03A4D500F007FC401B6428F6D947
:100A6C000320EFE16C4B5B68C022520213408022E2
:100A7C0012029342A2D1684B1B689B0703D5E36813
:100A8C00012B00D0E2E164490B68F8229343226900
:100A9C00D20013430B6023681B0744D5E369002B7A
:100AAC002ED05D4A536A01210B43536200F0DCFBEC
:100ABC000500594B5B6A9B0735D400F0D5FB401BF6
:100ACC000228F6D90320BDE153490B68F822934361
:100ADC002269D20013430B60DDE74F4A13680121F2
:100AEC008B43136000F0C0FB05004B4B1B689B074E
:100AFC00D1D500F0B9FB401B0228F6D90320A1E1A7
:100B0C00454A536A01218B43536200F0ADFB05004B
:100B1C00414B5B6A9B0706D500F0A6FB401B0228E5
:100B2C00F6D903208EE123685B0700D480E03A4BB2
:100B3C00DB69DB001DD4384AD169802040050143B4
:100B4C00D161D36903400193019B0125354B1B688F
:100B5C00DB0510D5A368012B21D0002B36D12E4BF1
:100B6C001A6A01218A431A621A6A03318A431A6289
:100B7C001AE00025EAE72B4A116880235B000B433F
:100B8C00136000F071FB0600264B1B68DB05E1D4FB
:100B9C0000F06AFB801B6428F6D9032052E11E4A40
:100BAC00136A01210B431362A368002B24D000F0BD
:100BBC005BFB0600184B1B6A9B0737D400F054FBF9
:100BCC00801B194B9842F5D903203BE1052B09D02A
:100BDC00114B1A6A01218A431A621A6A03318A4339
:100BEC001A62E1E70C4B1A6A04210A431A621A6A68
:100BFC0003390A431A62D7E700F036FB0600064BAE
:100C0C001B6A9B0712D500F02FFB801B064B9842EA
:100C1C00F5D9032016E1C04600100240FFFFFEFF8D
:100C2C00FFFFFBFF0070004088130000012D39D03E
:100C3C002368DB0610D56369012B39D0053357D1F6
:100C4C00894A536B04218B435363536BF4318B43AD
:100C5C00A169C9000B43536323689B066ED5824B75
:100C6C005A680C2313400C2B60D07F4B5A680C2312
:100C7C001340082B53D0236A002B7ED07A4A516B39
:100C8C0080235B020B43536300F0EEFA0500764BB6
:100C9C005B6BDB0352D400F0E7FA401B0228F6D959
:100CAC000320CFE0704AD36970490B40D361BFE792
:100CBC006D4B5A6B04210A435A635A6B03390A432E
:100CCC005A6300F0D1FA0500674B5B6B9B0706D4A7
:100CDC0000F0CAFA401B0228F6D90320B2E06249A0
:100CEC004B6BF8229343A269D20013434B63B3E7D7
:100CFC005D4B5A6B04210A435A635A6B03398A437E
:100D0C005A6300F0B1FA0500574B5B6B9B07A3D5F8
:100D1C0000F0AAFA401B0228F6D9032092E0524BAD
:100D2C005B68C022520213409342A4D14E4B5B6BC2
:100D3C00DB0303D5236A012B00D089E0636A002B07
:100D4C0000D187E0484A51680C220A40082A60D03A
:100D5C00022B25D0444A136845490B40136000F020
:100D6C0083FA0400404B1B689B0150D500F07CFAC1
:100D7C00001B0228F6D9032064E03B4A536B3D4923
:100D8C000B40536300F070FA0500374B5B6BDB03D1
:100D9C00D4D500F069FA401B0228F6D9032051E0A3
:100DAC00314A136832490B40136000F05DFA0500BC
:100DBC002D4B1B689B0106D500F056FA401B0228F0
:100DCC00F6D903203EE0284BDA6A0F218A43216BC7
:100DDC000A43DA625A6828490A40E16AA06A014368
:100DEC000A435A601968802252040A431A6000F0C0
:100DFC003BFA04001C4B1B689B0106D400F034FA30
:100E0C00001B0228F6D903201CE000201AE0002069
:100E1C0018E0012B20D0144B5A68D96AC0235B020E
:100E2C001340A06A834219D10F230B40216B8B42D4
:100E3C0016D1F0239B031A40E36A9A4212D1002088
:100E4C0000E0012002B070BD0120FBE70120F9E7B2
:100E5C000120F7E70020F5E70120F3E70120F1E797
:100E6C000120EFE70120EDE700100240FFFFFFEF4C
:100E7C00FFFFFFFEFFFFFEFFFF7FC2FF10B588B034
:100E8C0004AA1E4B13CB13C21B6813606A461C4B7F
:100E9C0013CB13C21B6813601A4B5A680C231340F4
:100EAC00082B04D00C2B26D1174808B010BD910C80
:100EBC000F23194004A8445C1249C96A0B406946C7
:100ECC00C95CC0235B021A4080235B029A4208D0A3
:100EDC00C0235B029A4209D00C48FFF70DF960431E
:100EEC00E3E70A48FFF708F96043DEE70648FFF737
:100EFC0003F96043D9E70548D7E7C046C015000899
:100F0C00D415000800100240006CDC0200127A00BC
:100F1C0070B504000D00002800D186E0474B1A681C
:100F2C00012313408B420AD244490B68012293439C
:100F3C002B430B600B681A40AA4200D077E0236861
:100F4C009A070ED55B0705D53D4A5168E023DB00B7
:100F5C000B4353603A4A5368F0218B43A1680B430F
:100F6C0053602368DB0735D56368012B09D0022B4E
:100F7C0024D0032B28D0324A1268920705D40120C2
:100F8C0052E02F4A1268920353D52D494A68032028
:100F9C00824313434B6000F067F90600284B5B68F3
:100FAC000C221A4063689B009A4213D000F05CF943
:100FBC00801B244B9842F1D9032035E0204A12685B
:100FCC009201E2D401202FE01D4A526BD203DCD4F3
:100FDC00012029E0194B1A6801231340AB4209D9AF
:100FEC0016490B68012293432B430B600B681A4084
:100FFC00AA4220D123685B0706D5114A53681249CF
:10100C000B40E1680B435360FFF738FF0C4B5A68F9
:10101C0012090F2313400D4AD35CD8400C4B1860B7
:10102C00002000F0DDF8002070BD0120FCE701205D
:10103C00FAE70120F8E70120F6E7C046002002405D
:10104C000010024088130000FFF8FFFFE8150008AD
:10105C0008000020014B18687047C04608000020AB
:10106C0010B5FFF7F7FF044B5A68120A0723134019
:10107C00024AD35CD84010BD00100240F81500089D
:10108C0070B582B004000368DB0337D54C4BDB69C9
:10109C00DB0067D44A4AD169802040050143D16105
:1010AC00D36903400193019B0125464B1B68DB056B
:1010BC005AD5434B1A6AC0239B00110019401A429F
:1010CC0013D0626813408B420FD03D4B186A3E4AD6
:1010DC0002401E6A8021490231431962196A3B4E53
:1010EC00314019621A62C30752D4354A136A364921
:1010FC000B4061680B431362012D58D02368DB074A
:10110C0006D52F4A136B03218B43A1680B43136342
:10111C0023689B0706D52A4A136B2D490B40E168BF
:10112C000B43136323685B0306D5254A136B2949CC
:10113C000B4021690B43136323689B0606D5204A99
:10114C00136B10218B4361690B43136323685B059D
:10115C0032D51B4A136B40218B43A1690B4313639C
:10116C0000202AE00025A0E7164A116880235B00C6
:10117C000B43136000F078F80600124B1B68DB057C
:10118C0097D400F071F8801B6428F6D9032014E082
:10119C0000F06AF806000A4B1B6A9B07A5D400F006
:1011AC0063F8801B0C4B9842F5D9032005E0D369FA
:1011BC000A490B40D361A1E7002002B070BDC046C4
:1011CC000010024000700040FFFCFFFFFFFFFEFF1D
:1011DC00FFFFFCFFFFFFF3FF88130000FFFFFFEF93
:1011EC0010B504000F4B1978FA208000FEF784FF2D
:1011FC0001000D4B1868FEF77FFF00F05BF900282B
:10120C000DD1032C01D901200AE00130002221006C
:10121C00404200F013F9054B1C60002000E0012057
:10122C0010BDC04600000020080000200400002073
:10123C0010B5064A136810210B4313600020FFF70A
:10124C00CFFFFFF799F8002010BDC04600200240E8
:10125C00034A1168034B1B785B1813607047C04638
:10126C00A800002000000020014B18687047C04601
:10127C00A8000020F0B5CE46474680B583B00023C9
:10128C0033E0042600E00026A64034003C43023242
:10129C009200594E9451594A1468EA432600AE43C1
:1012AC004F68FF0301D52C432600544C266064681C
:1012BC00260016404F68BF0301D52C4326004F4C27
:1012CC006660A468260016404F68FF0201D52C43C7
:1012DC0026004A4CA660E46822404E68B60201D54E
:1012EC002A002243454CE26001330C682200DA40AC
:1012FC007CD001229A40250015401442F4D04C6851
:10130C00661E012E03D9112C01D0122C12D1846827
:10131C005F000326BE40B4432600CC68BC40344377
:10132C008460446894434A681609012232409A400A
:10133C0022434260C4685F000326BE40F2439446D9
:10134C00B44326008C68BC403443C4604A68022A0B
:10135C0001D0122A10D1DE080836B200914614587A
:10136C0007221A4092000F269640B4430E6996400D
:10137C00320022434C462250046862461440032239
:10138C004E683240BA40224302604A68D200ABD564
:10139C001B4CA66901221643A661A4692240019246
:1013AC00019A9A08941CA400134EA75903261E40B8
:1013BC00B4000F26A640B7439026F605B04200D1E4
:1013CC0061E7104EB0420BD00F4EB0420AD00F4E18
:1013DC00B04209D00E4EB04200D152E7052653E779
:1013EC00012651E702264FE703264DE703B00CBC5C
:1013FC0090469946F0BDC0460000014000040140F3
:10140C00001002400004004800080048000C00488E
:10141C0000100048002A01D0816170478162FCE70E
:10142C0010B5054B5B69184200D110BD024B5861D9
:10143C00FEF793FFF9E7C0460004014070B50028A1
:10144C0011DB8308134EC0339B009D5903242040AD
:10145C00C000FF2214008440A54389010A40824049
:10146C002A439A5170BD0F230340083B9B08063357
:10147C009B00094A944663445C6803221040C000F8
:10148C00FC3215008540AC4389010A40824022435E
:10149C005A60E7E700E100E000ED00E0002805DB22
:1014AC001F2318401E3B8340014A13607047C046FF
:1014BC0000E100E0013880235B0498420FD2094A16
:1014CC0050600948036A1B021B0AC02109060B4322
:1014DC0003620023936007331360002070470120E0
:1014EC00FCE7C04610E000E000ED00E070470000B3
:1014FC000D4885460D480E490E4A002302E0D4588B
:10150C00C4500433C4188C42F9D30B4A0B4C00233F
:10151C0001E013600432A242FBD3FFF7E7FF00F0B7
:10152C0011F8FEF710FFFEE70080002000000020FD
:10153C000C000020081600080C000020AC00002055
:10154C00FEE7000070B500260C4D0D4C641BA4107A
:10155C00A64209D1002600F021F80A4D0A4C641B62
:10156C00A410A64205D170BDB300EB5898470136C4
:10157C00EEE7B300EB5898470136F2E70016000887
:10158C000016000800160008041600080300821854
:10159C00934200D1704719700133F9E7F8B5C04692
:1015AC00F8BC08BC9E467047F8B5C046F8BC08BCF1
:0415BC009E46704790
:1015C00002030405060708090A0B0C0D0E0F101084
:1015D000000000000102030405060708090A0B0CBD
:1015E0000D0E0F10000000000000000000000000C1
:1015F00001020304060708090000000001020304B9
:04160000E5000008F9
:04160400BD0000081D
:0C160800010000000400000000127A0045
:04000005080014FDDE
:00000001FF
