:020000040800F2
:1000000008040020D9010008CB0A0008EB02000810
:10001000C90A0008E7020008AD0C00080000000053
:10002000000000000000000000000000B50B000808
:10003000E902000800000000CD0A0008B70B000824
:10004000F3010008F3010008F3010008F3010008C0
:10005000F3010008F3010008F3010008F3010008B0
:10006000F3010008F3010008F3010008F3010008A0
:10007000F3010008F3010008F3010008F301000890
:10008000F3010008F3010008E5020008F30100088D
:10009000F3010008F3010008F3010008F301000870
:1000A000F3010008F3010008F3010008F301000860
:1000B000F3010008F3010008F3010008F301000850
:1000C000F3010008F3010008F3010008F301000840
:1000D000F3010008F3010008F3010008F301000830
:1000E000F3010008F3010008F3010008F301000820
:1000F000F3010008F3010008F3010008F301000810
:10010000F3010008F3010008F3010008F3010008FF
:10011000F3010008F3010008F3010008F3010008EF
:10012000F3010008F3010008F3010008F3010008DF
:10013000F30100080000000000000000F3010008C7
:10014000F3010008F3010008F3010008F3010008BF
:10015000F3010008F3010008F3010008F3010008AF
:10016000F3010008F3010008F3010008F30100089F
:10017000F3010008F3010008F3010008000000008B
:1001800000000000F3010008000000000000000073
:10019000F30100080000000000000000F301000867
:1001A000000000000000000000000000F301000853
:1001B000F3010008F3010008F3010008F30100084F
:1001C000F3010008DFF80CD000F07AF8004800478F
:1001D000CD0C000808040020064880470648004768
:1001E000FEE7FEE7FEE7FEE7FEE7FEE7FEE7FEE7E7
:1001F000FEE7FEE7910C0008C50100082DE9F05F5D
:100200000546002092469B46884606468146402485
:100210001BE0284641464746224600F041F8534637
:100220005A46C01A914110D311461846224600F092
:1002300028F82D1A67EB01084F46224601200021BD
:1002400000F01FF817EB00094E41201EA4F1010435
:10025000DFDC484631462A464346BDE8F09FD2B22D
:1002600001E000F8012B491EFBD270470022F6E79F
:1002700010B513460A4604461946FFF7F0FF20461C
:1002800010BD202A04DB203A00FA02F1002070475A
:100290009140C2F1200320FA03F3194390407047C4
:1002A000202A04DB203A21FA02F00021704721FACB
:1002B00002F3D040C2F12002914008431946704732
:1002C000064C074D06E0E06840F0010394E80700A3
:1002D00098471034AC42F6D3FFF778FF400D000882
:1002E000600D00087047FEE77047FEE730B5134C1D
:1002F0004B680022A468124D04F00104AD6805F0BB
:1003000001052C430F4DAD6805F001052C4302D0CB
:100310000122104630BD0C4D53B10C681C43D1E98D
:1003200002310B4341681C4329400C434460F0E711
:10033000436809682B400B434360EAE70020014013
:100340000021014000220140E010FCFF30B583682D
:10035000002213F0010F02D00122104630BD8C683C
:100360000B6823434468054D2C4023434360836856
:10037000496823F400630B438360EEE7FFFEFFFC54
:1003800030B54B688468002214F0010F02D00122BE
:10039000104630BD002B436823F4684301D08C68BD
:1003A00023434360D1E9033423438468074D2C4041
:1003B0000D6805F070652C43234383604968C36A68
:1003C00023F470030B43C362E2E70000FDFCFFC0AF
:1003D00010B54FF4407494FAA4F401F44073B4FAE5
:1003E00084F4E34000EB8300C36A01F01F011F2483
:1003F0008C4002F01F02A3438A401343C36210BD26
:1004000070B54FF0007494FAA4F401F00073B4FADC
:1004100084F4E34000EB8300C3684FF0F87494FA6F
:10042000A4F501F0F871B5FA85F521FA05F507266E
:10043000AE4094FAA4F4B4FA84F4E140B3438A40A1
:100440001343C36070BD0000044908B50A68024345
:100450000A6009680140009108BD00003038024080
:1004600030B5264A002405790168131F85B371B39E
:1004700045798DB1012D17D0022D18D00124837933
:100480002BB31E4908310A1F012B18D0022B20D094
:10049000032B22D0012428E015688D4315600168E4
:1004A0001A680A431A60EAE71D688D4301E01D6877
:1004B0000D431D60016813680B431360DFE7036899
:1004C0000D689D430D6000681168014311600CE0E8
:1004D0000DE0036815689D4302E0036815681D433D
:1004E000156000680A6802430A60204630BD1D6836
:1004F0008D431D60006811688143E7E7043C0140BB
:10050000F0B50A680F2692FAA2F2B2FA82F3032437
:100510008AE001279F4015EA07027DD04D68012D32
:1005200001D0022D1BD18D68876892FAA2FCBCFA1B
:100530008CFC4FEA4C0C04FA0CFC27EA0C0792FAEC
:10054000A2FCBCFA8CFC4FEA4C0C05FA0CF52F43CC
:100550008760CD684768554397432F4347600F69CD
:10056000D0F80CC092FAA2F5B5FA85F54FEA450E1F
:1005700004FA0EF52CEA050C92FAA2F5B5FA85F507
:100580006D00AF404CEA070CC0F80CC04D68022D5E
:1005900033D192FAA2F5B5FA85F5082D15D2D1F826
:1005A00014C0056A92FAA2F7B7FA87F7BF0006FAF5
:1005B00007F7BD4392FAA2F7B7FA87F7BF000CFA24
:1005C00007FC45EA0C05056217E0D1F814E0476A1C
:1005D000150A95FAA5FCBCFA8CFC4FEA8C0C06FABD
:1005E0000CFC95FAA5F5B5FA85F5AD0027EA0C07E0
:1005F0000EFA05FE47EA0E0747624D68076892FA51
:10060000A2FCBCFA8CFC4FEA4C0C04FA0CFE27EA64
:100610000E0792FAA2F200E005E0B2FA82F252006E
:1006200095402F4307605B1C0A681546DA407FF44B
:1006300070AF0020F0BD4FF47A71B0FBF1F14FF0D4
:10064000E020491E4161002181610521016170475F
:1006500010B5044600F066FA206000F039FA6060D8
:1006600000F044FAA060606800F04EFAE06010BD4F
:100670000248006800F03F00704700000438024064
:100680000248006800F4800070470000043802400F
:1006900002480068C0F38810704700000438024028
:1006A0000248006800F0E040704700000438024053
:1006B0000149086070470000000000207FB5044633
:1006C000C0680D460126C0F34030C0BBE9686868C9
:1006D000AA690843296911430843E16849F20C6299
:1006E00091430843E060A868216921F44051014327
:1006F00021616869616921F4407101436161684663
:10070000FFF7A6FF0F48844208D00F4884420DD05F
:100710000E4884420AD00E48844201D1039906E073
:100720000C48844202D00C48844208D1029931B16D
:100730002B6823B100262046AA6900F00FF804B008
:10074000304670BD001001400044004000480040A9
:1007500000140140004C0040005000402DE9F041E1
:1007600006461920A1FB00011F4600236424322500
:10077000B2F5004F27D0BB0FBA00FFF73FFD01468F
:10078000B0FBF4F06FF01802504301EB800005EB72
:100790000010B0FBF4F000F0F002B1FBF4F002EB5B
:1007A0000012B1FBF4F06FF01803584301EB800026
:1007B00005EB0010B0FBF4F000F00F00104480B225
:1007C000B060BDE8F081FA195B41FFF717FD014603
:1007D000B0FBF4F00201B1FBF4F06FF018035843E2
:1007E00001EB800005EBC000B0FBF4F000F0F80076
:1007F00002EB4002B1FBF4F0584301EB800005EB43
:10080000C000B0FBF4F000F00700D7E730B593B0BC
:1008100000240F941094142168461194FFF726FDCC
:100820000B940C940D94182105A80E94FFF71EFD4F
:100830003E484FF48075016841F4807101600068A2
:1008400000F48070129039481438016841F00101B9
:100850000160006805A900F00100129013200590C6
:100860000320069009943248FFF74AFE3148006899
:10087000C0F30220011D072901D2002000E0C01EA4
:1008800004FA00F108012C4981F800044FF0E0213E
:100890004FF48020C1F80001CDE91045274D0FA984
:1008A0000F942846FFF752FD4FF40010CDE90040A9
:1008B0000220CDE90240694628460494FFF760FD16
:1008C000A86820F48060A860686820F02000686054
:1008D0004FF48030CDE90B040BA91948FFF706FD52
:1008E0004FF00074224621142846FFF771FD0022C4
:1008F00021462846FFF784FD124C40F2052122468E
:100900002846FFF765FD002221462846FFF778FDBF
:100910000D4C40F20A2122462846FFF759FD0022DD
:1009200021462846FFF76CFD13B030BD4438024025
:10093000000002400CED00E012E000E00020014069
:1009400000230140010030020400C0022DE9F04103
:1009500088B000240694182168460794FFF786FCA7
:100960000420FFF771FD8020FFF76EFD0120FFF7E7
:100970006BFD0220FFF768FDDFF8A4804FF4001143
:10098000C8F81810274902200326D1F80828F023B8
:1009900093FAA3F3B3FA83F322F0F00298400243F0
:1009A000C1F8082801278DF81C708DF81D40022021
:1009B0004D148DF81E00069506A8FFF751FD1A4844
:1009C000C16895FAA5F2B2FA82F2520006FA02F272
:1009D000914395FAA5F2B2FA82F2520004FA02F2B9
:1009E0001143C160016895FAA5F2B2FA82F2520091
:1009F000964095FAA5F2B2FA82F25200B14304FA97
:100A000002F21143016020200090CDE901740394AB
:100A1000694640460494FFF773FD08B0BDE8F081D5
:100A2000000002400C3001400008024030B58FB099
:100A30001C216846FFF71AFC182107A8FFF716FCCF
:100A40001E48016841F400310160006800F4003084
:100A50000D901A481038016841F0010101600068EA
:100A60000C2500F001000D900220CDE90750032075
:100A70000024CDE909040720CDE90B4007A910485F
:100A8000FFF73EFD4FF4E130CDE900040294CDE9DB
:100A90000345059406940B4C69462046FFF70EFE6D
:100AA000206920F490402061606920F02A00606194
:100AB000E06840F40050E0600FB030BD40380240C4
:100AC0000000024000440040FEE77047704700000D
:100AD00004490968044A01F0F0010909515CC84061
:100AE0007047000008380240280D000804490968D2
:100AF000044A01F4E05102EB91210978C8407047A3
:100B000008380240380D000804490968044A01F415
:100B1000604102EB51310978C84070470838024003
:100B2000380D00080948006810F00C0108480AD088
:100B3000042907D0082907D00C2904D15FF00C0044
:100B400000F00AB8034870470820F9E70838024067
:100B50000024F40000127A0070B50546FFF790FDFE
:100B6000124C18B1B0F5800F00D16410082D0CD0D4
:100B7000FFF77EFDB4FBF0F4FFF78AFD4443FFF777
:100B80008FFD000FB4FBF0F070BDFFF771FDB4FBFB
:100B9000F0F4FFF77DFD444305480068012100F4AF
:100BA000403001EB10404000ECE700000024F4006E
:100BB00004380240704770472F4810B5016821F093
:100BC0000F0141F00501016000682C48016841F403
:100BD00040410160016841F48031016028490868A2
:100BE00040F4803008600868C0F340400028FAD024
:100BF0002348244A001D0368234C23401A43026003
:100C0000026822F440320260026822F0E042026090
:100C1000086840F0807008600868C0F340600028F1
:100C2000FAD017480830016821F0F001016001682E
:100C300021F4E05141F4A0510160016821F46041C8
:100C400041F400410160016821F0030141F002011B
:100C50000160016801F00C010829FAD10B4C204613
:100C6000FFF7E9FC2046FFF723FD05488C300168BB
:100C700021F08071016010BD003C02400070004016
:100C800000380240042D40000080BFFF0095BA0AE2
:100C90000548016841F47001016003494FF00060AC
:100CA000803908607047000088ED00E0FEE702E050
:100CB00008C8121F08C1002AFAD1704770470020E7
:100CC00001E001C1121F002AFBD17047134808B58B
:100CD000016841F480410160006800F480400090A8
:100CE0000E48001F016841F08051016000680C4906
:100CF00000F08050009008684FF6FF021040094A4B
:100D000040F4E06010430860FFF756FFFFF71EFE57
:100D1000FFF77CFDFFF78AFEFEE700004438024043
:100D20000CED00E00000FA050000000000000000EB
:100D30000102030406070809000000000102030481
:100D4000600D00080000002004000000AE0C000848
:100D5000640D00080400002004040000BE0C00081C
:040D60000024F40077
:04000005080001C529
:00000001FF
